:0600000002006902076323
:03000B000207A346
:030013000207845D
:03001B000207A534
:030023000208B917
:03002B000207A722
:030033000207A918
:03003B000211406F
:03004300020100B7
:03004B0002076445
:03005300020100A7
:03005B0002078514
:030063000207860B
:0800C200E4F508F509020066EF
:030066000205CEC2
:2001C300AEB16306408EB122E582600453B1BF2243B1402243B6407582000201CBAE82AFD0
:2001E30083E0FDE4BDA10104FD70030202938E828F83A3E0FCBC070280030202938E828F2F
:2002030083A3A3A3A3E0FBA3E0FC4B600302029374062EF582E43FF583E0FBA3E0FCBB1846
:200223006FBC006C90E7407401F090E741E4F090E742F004A3F090E744E4F090E74504F0FD
:20024300755900755A06755B0090E74675F00012076590E74CE4F004A3F090E74E7407F02A
:2002630090E74F740FF0755900755A08755B0090E75075F00012076590E6B57401F090E61D
:200283008AE4F090E68B7418F090E6A07480F022ED60488E828F83A3E0FDBDA03E8E828FF3
:2002A30083A3A3A3A3E0FCA3E0FD4C702E74062EF582E43FF583E0FEA3E0FFBE011DBF0031
:2002C3001A90E7407401F090E6B5F090E68AE4F090E68B04F090E6A003F02290E6A074014B
:2002E300F07481F022AD82AE83AFF07B007C008D828E838FF0121179FA700302038E8B59EF
:20030300ECC454F0C559C4C5596559C55954F0C5596559F55ABA3000401BEA24C640168AA2
:20032300017A00E924D0F9EA34FFFAE94559FBEA455AFC804E8D828E838FF0121179FABA8E
:200343006100401BEA249940168A00790074A928F874FF39F9E84559FBE9455AFC8024BA99
:200363004100401BEA24B940168A017A0074C929F974FF3AFAE94559FBEA455AFC8004909B
:200383000000220DBD00010E0202F28B828C8322AD82AE83AFF08D028E038F047559E8754E
:2003A3005A19755B80755C05755D008D828E838FF0C007C006C005C004C003C0021206E895
:2003C300E5828583F0D002D003D004D005D006D00745F0702774EEC0E07419C0E07480C011
:2003E300E0C00AC00BC00C120861E58124FAF581850A82850B83850CF002116075590775E2
:200403005A1A755B80755C05755D008D828E838FF0C004C003C0021206E8E5828583F0D056
:2004230002D003D00445F07027740DC0E0741AC0E07480C0E0C00AC00BC00C120861E5811F
:2004430024FAF581850A82850B83850CF0021160755925755A1A755B80755C0C755D008A88
:20046300828B838CF01206E8E5828583F045F070277433C0E0741AC0E07480C0E0C00AC0AF
:200483000BC00C120861E58124FAF581850A82850B83850CF002116090000022AE82AF83E1
:2004A300E0FDBD012B74042EFBE43FFC74082BFBE43CFC7A00750A40750BE08A0C8B828C2D
:2004C300838AF012039385820885830990000022BD027290E0007402F00EBE00010F8E82AF
:2004E3008F83E090E001F08E828F83E0F490E002F090E003E4F0AC08AD097E007F0090E030
:2005030004ECF0EDA3F0EEA3F0EFA3F090E00804F090E009E4F090E00AF090E00BF0755919
:2005230040755AE085085B85095C90E00C1206BDAE08AF09740C2EFEE43FFF8E828F83E464
:20054300F508F5092290000022AF8275B3FF75B5FF75B40775A0008F9075B00075A0017534
:20056300A00075B30075B50075A002AFB07E00AC907D00EC4EF582ED4FF5838EA022AF82F3
:2005830075B3FF75B5FF75B40775A0008F9075B00075A00175A000855AB085599075A0043E
:2005A30075A00675A00075B30075B50022C0E0C082C083750D015391EF90E65B7401F09053
:2005C300E659C4F0D083D082D0E03290E6007410F090E60B7403F0A1DC90E6047480F09061
:2005E300E611E053E07FF090E610E053E07FF090E61274A2F090E6A3E4F090E61474E2F02C
:2006030090E6A5E4F090E613E053E07FF090E615E053E07FF090E6587410F090E65AC4F00A
:20062300C12590E6047482F0C12D90E6497482F0C13590E6497482F0C13D90E6047486F0E1
:20064300C14590E604E4F01201D77582011211957E007F007C007D00EE4F702290E6A3E0EB
:2006630020E21B90E690E090E691E090F00012049FAC82AD8390E691E4F07E007F00EC4DE9
:2006830060D6E50D60D2755900755AE08C5B8D5C90F800C007C006C005C0041206BDD00469
:1A06A300D005D006D00790E698EDF0C1B090E699ECF07C007D008D0D809EC3
:20199C001201000200000040371321100000010203010904000002FE0301000705020240F3
:2019BC000000070586024000000902000001010080FAAE19B719BE190000C519501A601A80
:2019DC00721A9C19000001D61903D8192A49444E3F004472456C656374726F2C53414731C6
:2019FC003032312C534E302C52300050524F443F0050524F44204D4F44454C2C534147311B
:201A1C00303231492C2D2C2D0049444E2D53474C542D4157473F005369676C656E74205445
:201A3C006563686E6F6C6F676965732C202C202C202C200064724064726C656374726F2E27
:1D1A5C00636F6D00646F63746F7265642053414731303231490030303030303000B2
:2006BD00AA82AB83AC59AD5AAE5BAF5CEE60010FEF601775AF078A9B8B9A8C9E8D9D90E6A0
:0B06DD007CE090E67BF0DEF6DFF4220C
:2006E800AD82AE83AFF0E55C455D700490000022AA59AB5AAC5BA85CA95D18B8FF0119E800
:200708004960368D828E838FF0121179F55E6029C000C0018A828B838CF0121179F9B55E1C
:20072800028006D001D0008010D001D0000DBD00010E0ABA00C40B80C18D828E838FF012F9
:1B0748001179FD7F008A828B838CF0121179FA7E00EDC39AF582EF9EF58322FE
:06009800E478FFF6D8FD3C
:010763003263
:010764003262
:1F076500AC82AD83AE5AAF5BBE0004EF600C1F0FE559120787A3DEFADFF88C828D83224A
:010784003242
:200076007900E94400601B7A00901A88780075923EE493F2A308B800020592D9F4DAF2756D
:0200960092FFD7
:010785003241
:010786003240
:0301000002123EAA
:03010400021141A4
:030108000207AF3C
:03010C000208B72F
:0301100002117861
:0301140002186569
:030118000207AC2F
:03011C000201B825
:030120000208AF23
:030124000218635B
:030128000208B01A
:03012C0002186452
:0301300002189022
:030134000207A21D
:030138000207A417
:03013C000207A80F
:030140000205B005
:030144000201B8FD
:0301480002185D3D
:03014C0002185E38
:0301500002185F33
:030154000218602E
:0301580002186129
:03015C0002186224
:0301600002114247
:030164000201B8DD
:030168000201B8D9
:03016C000201B8D5
:030170000208AED4
:030174000208B1CD
:030178000208B3C7
:03017C000208B5C1
:030180000208B2C0
:030184000208B4BA
:030188000208B6B4
:03018C000208B8AE
:030190000207AAB9
:030194000207ADB2
:030198000207B0AB
:03019C000207B2A5
:0301A0000207ABA8
:0301A4000207AEA1
:0301A8000207B19A
:0301AC000207B394
:0301B0000207A69D
:0301B400021883AB
:0101B8003214
:1B07870020F71130F6138883A88220F509F6A8837583002280FEF280F5F02271
:0107A2003224
:0107A3003223
:0107A4003222
:0107A5003221
:0107A6003220
:0107A700321F
:0107A800321E
:0107A900321D
:0107AA00321C
:0107AB00321B
:20009E007800E84400600A790075923EE4F309D8FC7800E84400600C7900903E00E4F0A3F4
:0400BE00D8FCD9FA97
:0107AC00321A
:0107AD003219
:0107AE003218
:0107AF003217
:0107B0003216
:0107B1003215
:0107B2003214
:0107B3003213
:2007B400C015858115C082058105810581E51524FBF8A9150909E6F70809E6F70809E6F7C7
:2007D400A815080886820886830886F0121179FAA3121179FBA3121179FF74012AFCE43BD9
:2007F400FD8F06A815080886820886830886F0EC120787A3ED120787A3EE1207878A828B6B
:20081400838FF0A81508E6120787851581D0152285821285831385F014752E12752F0075CA
:200834003040850E31850F328510338511349007B4120958AE82AF83AB12AC13AD148B82AE
:200854008C838DF0E41207878E828F8322C015E581F51524F8FF8F34E51524FBFF8F2E75C3
:200874002F00753040E51524F8F886310886320886339007B4120958AE82AF83E51524FBD1
:1A089400F886030886040886058B828C838DF0E41207878E828F83D015225E
:0108AE003217
:0108AF003216
:0108B0003215
:0108B1003214
:0108B2003213
:0108B3003212
:0108B4003211
:0108B5003210
:0108B600320F
:0108B700320E
:0108B800320D
:0108B900320C
:2008BA00AF82C024C025C0261208C78007C022C0238F8222158115811581052CE4B52C0224
:2008DA00052D22AF8274302FFF24C6500B74072FFFE52160034307208F820208BAE582FFAB
:2008FA00C4540FF582C0071208DDD007740F5FF5820208DD858259AB27AC28AD29AE2AAA0D
:20091A002B755B208A07EF2FF55AEE235401455AFAEB2BFBEC33FCED33FDEE33FEC3EA95FB
:20093A00594008EAC39559FA430301E55B14FF8F5B70D18B278C288D298E2A8A2B228582F0
:20095A0022858323852E24852F25853026E4F52CF52DAD31AE32AF338D828E838FF012111C
:20097A0079FC74012DF531E43EF5328F33ECFF7003021139BF250280030211317E007D00C3
:20099A008E358E367A007B008E377C008E38E4F540F5417539FF753AFF8531428532438599
:2009BA0033448542828543838544F0121179F545A38582428583438542318543328544335E
:2009DA007425B545088545821208BA808574D025454003020A9AE54524C65003020A9A7425
:2009FA00FFB53955B53A5285405985415A90000AC006C005C004C003C002121143858246FB
:200A1A00858347D002D003D004D005D006854548754900E5482546F548E5493547F549E5D7
:200A3A004824D0F540E54934FFF541E540454160030209BC7D010209BC853959853A5A90BA
:200A5A00000AC006C005C004C003C002121143858248858349D002D003D004D005D00685EF
:200A7A004546754700E5462548F548E5473549F549E54824D0F539E54934FFF53A0209BCB2
:200A9A00742EB5451574FFB53905B53A0280030209BCE4F539F53A0209BC749F2545500E07
:200ABA00E545248540085345DF75210180037521007420B54503020B66742BB54503020B2D
:200ADA0060742DB5450280797442B54503020B6C7443B54503020B777444B54503020DC41A
:200AFA007446B54503020DDA7448B545030209BC7449B54503020DC4744AB545030209BCAD
:200B1A00744CB545028050744FB54503020DCB7450B54503020D0F7453B545028076745435
:200B3A00B545030209BC7455B54503020DD07458B54503020DD5745AB545030209BC020DE4
:200B5A00DE7E010209BC7535010209BC7536010209BC7B010209BC7537010209BCEB600A66
:200B7A00E53414F989348748800DE53424FEF546854634A9468748854882C006C005C0044B
:200B9A00C003C0021208BAD002D003D004D005D006020E00E53424FDF548854834A94887BE
:200BBA004209874309874419198542278543288544298542828543838544F0C006C005C098
:200BDA0004C003C002121160858248858349D002D003D004D005D00674FFB53909B53A06CC
:200BFA0085483985493AEE704FC3E5489540E54995415044E540C39548F546E5419549F5CA
:200C1A0047854642854743154674FFB546021547E5424543601C758220C006C005C004C0DF
:200C3A0003C0021208BAD002D003D004D005D00680CF854640854741853946853A478527C0
:200C5A00828528838529F0121179F54285423D604FC3E4954674808547F063F08095F050CA
:200C7A003F154674FFB546021547853D82C006C005C004C003C0021208BAD002D003D0048F
:200C9A00D005D0068527428528438529440542E4B542020543854227854328854429809E65
:200CBA00EE7003020E00C3E5489540E54995414003020E00E540C39548F548E5419549F592
:200CDA0049854846854947154874FFB548021549E54645477003020DFA758220C006C00587
:200CFA00C004C003C0021208BAD002D003D004D005D00680CCE53424FDF546854634A946EA
:200D1A008742098743098744191985422785432885442985293E7480253E50057546438031
:200D3A001974A0253E5005754650800E74C0253E50057546498003754658854682C006C0C2
:200D5A0005C004C003C0021208BA75823A1208BA7582301208BA7582781208BAD002D0036F
:200D7A00D004D005D0067449B5460280217450B54602801A852882C006C005C004C003C023
:200D9A00021208F7D002D003D004D005D006852782C006C005C004C003C0021208F7D0021D
:200DBA00D003D004D005D006803C7A0175380A8035753808803075380A802B7538108026FA
:200DDA007C018022854582C006C005C004C003C0021208BAD002D003D004D005D00680063C
:200DFA00854840854941EC6068E53424FCFC8C348C01874A09874B09874C09874D191919D7
:200E1A00854A27854B28854C29854D2A75277975281A75298085274A85284B85294C74018D
:200E3A00254AF542E4354BF543854C44854227854328854429854A82854B83854CF01211E9
:200E5A0079FC8C4A700302096C854A821208BA80C4E538700302096CEB603FE53414F9899A
:200E7A003487048C4A754B00754C00754D00854A27854B28854C29854D2AEA6003020F1D21
:200E9A0085274A754B00754C00754D00854A27854B28854C29854D2A8069E5376025E53478
:200EBA0024FCFC8C348C01874A09874B09874C09874D191919854A27854B28854C29854D45
:200EDA002A8040E53424FEFC8C348C018703098704198B4AECF54B3395E0F54CF54D854A58
:200EFA0027854B28854C29854D2AEA701685274A85284BF54CF54D854A27854B28854C29FA
:200F1A00854D2AEA602AE52A30E723C3E49527F54AE49528F54BE49529F54CE4952AF54DB3
:200F3A00854A27854B28854C29854D2A80027A007C01791DE4F54AF54B752B00853882C0A2
:200F5A0006C005C004C002C00112090ED001D002D004D005D006EC700DE52BC4F548E7FBBE
:200F7A004548F7198002A72B054AE4B54A02054BECB40100E433FCE52745284529452A7068
:200F9A00B8893F854A3B854B3CE54045417005754001F541ED7043EE704085404A85414B37
:200FBA00AB3B0B8B48754900C3E548954AE549954B5021758220C006C005C004C002120805
:200FDA00BAD002D004D005D006154A74FFB54A02154B80CC854A40854B41EA601D75822DC2
:200FFA00C006C005C0041208BAD004D005D006154074FFB5400215418046E53B453C604019
:20101A00E535601D75822BC006C005C0041208BAD004D005D006154074FFB54002154180C6
:20103A001FE536601B758220C006C005C0041208BAD004D005D006154074FFB54002154113
:20105A00EE703C85404A85414BAA4AAB4B154A74FFB54A02154BC3E53B9AE53C9B5041EDE8
:20107A0060067A307B0080047A207B008A82C006C005C0041208BAD004D005D00680CAC377
:20109A00E53B9540E53C9541500FE540C3953BF548E541953CF549800DE4F548F54980064F
:2010BA00854A48854B49A93F853B4A853C4BAA4AAD4B154A74FFB54A02154BEA4D602EEC18
:2010DA00B40100E433FC700A09E7C4540FFD8D2B80078705740F5DF52B852B82C006C00419
:2010FA00C0011208DDD001D004D00680C1EE700302096CAD48AE498D038E041DBDFF011E84
:20111A00EB4C700302096C758220C006C0051208BAD005D00680E08F821208BA02096C8532
:06113A002C82852D8322AA
:0B1A79003C4E4F20464C4F41543E00B5
:01114000327C
:01114100327B
:01114200327A
:1D114300E5828559F0A4C582C0F0855AF0A4D0F025F0C5838559F0A42583F583227B
:18116000AA82AB831211796003A380F8C3E5829AF582E5839BF583222B
:011178003244
:0D00690075816412187FE582600302006655
:1C11790020F71430F6148883A88220F507E6A88375830022E280F7E49322E02285
:20119500AF82754F00755000D2E890E668E043E008F090E65CE043E001F090E65D7401F0EF
:2011B500D2AF90E680E020E10890E680E043E002F0EF600E90E680E043E008F090000A12D5
:2011D500195A90E680E053E0F7F022AF82BF00028037BF01028036BF02028039BF04028093
:2011F50038BF06028037BF08028036BF80028019BF8102801CBF8202801BBF8402801ABF71
:2012150086028019BF881E801890E6A02290E6A12290E6A22290E6A32290E6A42290E6A55E
:201235002290E6A62290000022C020C0E0C0F0C082C083C007C006C005C004C003C002C077
:2012550001C000C0D075D000C08675860090E6B8E0FFE4BF800104FE601990E6B9E0FDBD2D
:20127500061190E6BAE0FCA3E0F5828C171218840214B5EF702A90E6B9E0FDBD092290E62D
:20129500BAE0F58212197EE582600990E6A07480F00214B590E6A07401F07481F00214B5BF
:2012B500EE600E90E6B9E0FDBD08061218B50214B58F05BD013190E6B9E0FDBD0B2990E646
:2012D500BCE0FD90E6BAE0F5168D82121866E582600990E6A07480F00214B590E6A0740186
:2012F500F07481F00214B5E4BF810104FD601490E6B9E0FCBC0A0C90E6BCE0F58212189B74
:201315000214B5EF703690E6B9E0FCBC032E90E6BAE0FBA3E0FCBB010FBC000C754F0190EE
:20133500E6A07480F00214B5BB0205BC000280030214B590E6A07480F00214B5EE603290C0
:20135500E6B9E0702CAE4EE54F25E0FC420690E740EEF090E741E4F090E6B504F090E68AA4
:20137500E4F090E68B7402F090E6A07480F00214B5ED602890E6B9E0702290E740E4F09027
:20139500E741F090E6B504F090E68AE4F090E68B7402F090E6A07480F00214B5BF020280BE
:2013B5000302146090E6B9E0FEBE03028008BE0102800302146090E6BAE0FDA3E0FE4D6052
:2013D500030214B590E6BCE0F5821211E0AD82AE83ED4E70030214B590E6B9E0FCBC0318E3
:2013F5008D828E83E0FC4304018D828E83ECF090E6A07480F00214B590E6BCE0F582C00684
:20141500C005121891E582D005D00670030214B58D828E83E0FC5304FE8D828E83ECF0900A
:20143500E6BCE0FDA3E08D0453040F530580E4C423CDC423541F6DCD541FCD6DCDFE90E6AC
:2014550083ED4CF0E043E020F08055BF824C90E6B9E0704690E6BCE0F5821211E0AE82AF26
:2014750083EE4F603B8E828F83E0FE5306017F00EE4FB40100B3E433FF90E740F090E74109
:20149500E4F090E6B504F090E68AE4F090E68B7402F090E6A07480F0800690E6B81201E068
:2014B5005391EF90E65D7401F0D086D0D0D000D001D002D003D004D005D006D007D083D057
:2014D50082D0F0D0E0D02032AE82AF837401B55528E55670248E828F83E493FCA3E493FD5F
:2014F5008C598D5A8C828D83E493FC8C5B755C0090E0001206BD02172B7406B5553BE5563F
:2015150070378E828F83A3A3E493FCA3E493FD4C700A90E6A07401F07481F0228C028D03B7
:201535008A598B5A8C828D83E493FC8C5B755C0090E0001206BD02172B7402B555028003F7
:201555000216548E828F83A3A3A3A3E493FDC3E5569D40030216548E828F83A3A3A3A3A34D
:20157500E493FCA3E493FDE55675F002A42CF582ED35F0F583E493FCA3E493FD74092CFA2C
:20159500E43DFB8C008D018859895A8C828D83E493F9895B755C0090E000C005C004C0033D
:2015B500C0021206BDD002D003D004D0058C828D83E4932400FCE434E0FD8C578D588A82B3
:2015D5008B83E493F8A3E493F98859895A88828983E493F8885B755C00855782855883C0EB
:2015F50005C004C003C0021206BDD002D003D004D0058A828B83E493F8A3E493F988828936
:2016150083E4932CFCE43DFD74022AFAE43BFB8A828B83E493F8A3E493F948709D90E0025E
:20163500E0FAA3E0FB4A600302172BECC39400FCED94E0FD90E002ECF0EDA3F002172B7429
:2016550003B5550474018001E4FD601EE556701A755984755A1A901A84E493FC8C5B755CB6
:201675000090E0001206BD02172BED7003021721AC567D00EC24FFFAED34FFFB74072EF5F1
:2016950082E43FF583E493F87900C3EA98EB648089F063F08095F0507374082EF582E43F44
:2016B500F583E493FEA3E493FF1CBCFF011DEC2CFCED33FDEC2EF582ED3FF583E493FEA39C
:2016D500E493FF90E0007402F090E00104F074012401FCE434E0FD8E828F83E493FB60368F
:2016F5000EBE00010F8C828D83EBF074012CFAE43DFB8A828B83E4F0042AFCE43BFD90E0A5
:2017150000E0FB0B0B90E000EBF080CB90E6A07401F07481F0227E007FE090E6B57401F03E
:2017350090E6B3EFF090E6B4EEF090E6A07480F022AE82AF83A3A3A3A3A3E493F563A3E481
:2017550093F56474042EFEE43FFF755B008E828F83E493FAC3E55B9A400122E55B75F002B8
:20177500A42563F582E56435F0F583E493F55CA3E493F55D7409255CF55EE4355DF55F7903
:2017950000855C82855D83A3A3A3A3A3E493FAB550028003021858A85EAA5F88828A83E4C6
:2017B50093FBA3E493FD8B828D83A3E493F5607404B5603588828A83E493F561A3E493F52E
:2017D50062856182856283A3A3E493B55911856182856283A3A3A3E493FBB55A0280047BA7
:2017F5000080027B018B0180427405B5603DE9603A88828A83E493FBA3E493FD8B828D837D
:20181500A3A3E493FD740F5DFC530580E423CDC423541F6DCD541FCD6DCD30E40244E0FB2E
:2018350090E683ED4CF0E043E020F0740228F8E43AFA88828A83E493FBA3E493FD4B600362
:081855000217B0055B021762E7
:041A8400040309044A
:01185D003258
:01185E003257
:01185F003256
:011860003255
:011861003254
:011862003253
:011863003252
:011864003251
:011865003250
:19186600AF82E516700F8F5985165A9019DE1217467582012275820022B8
:04187F00758200224C
:011883003232
:0C1884008582558517569019DE0214DD90
:011890003225
:0A18910090E6A07480F07582012239
:1A189B0090E740E4F090E6B504F090E68AE4F090E68B04F090E6A003F02295
:1C18B50090E740E550F090E6B57401F090E68AE4F090E68B04F090E6A003F022B7
:2018D100E583700BE58224FA400122B4001122E5826003D5E0FD0075E0FED583F674F9D5E6
:2018F100E0FD22C007C006C001C000AE82AF83EE2EF8EF33F9EE28FEEF39FF90E600E0F8B0
:20191100794C20E416C3EF13CE13CEFF795AE820E309C3EF13CE13CEFF7963E58124FAF8D2
:20193100E926C313C313F9C3EE99F582EF9400F583D000D001D006D0075001220218D17406
:2019510011C0E01218F4158122C007C006AE82AF837411C0E0EE4F600D1EBEFF011F9003A3
:0D197100E81218F480EF1581D006D007228F
:1E197E00E582FF6003BF01128F507559FF755AFF9019DE12174675820122758200220D
:00000001FF
