:06000000020069020AE49F
:03000B00020B5D88
:03001300020B05D8
:03001B00020B5F76
:03002300020C903C
:03002B00020B7E47
:03003300020B803D
:03003B0002151794
:03004300020100B7
:03004B00020AE5C1
:03005300020100A7
:03005B00020B068F
:03006300020B0786
:0800C200E4F514F515020066D7
:0300660002080786
:2001C300AEB16306408EB122E582600453B1BF2243B1402243B6407582000201CBAE82AFD0
:2001E30083E0FDE4BDA10104FD70030202938E828F83A3E0FCBC070280030202938E828F2F
:2002030083A3A3A3A3E0FBA3E0FC4B600302029374062EF582E43FF583E0FBA3E0FCBB1846
:200223006FBC006C90E7407401F090E741E4F090E742F004A3F090E744E4F090E74504F0FD
:2002430075630075640675650090E74675F000120AE690E74CE4F004A3F090E74E7407F088
:2002630090E74F740FF075630075640875650090E75075F000120AE690E6B57401F090E67B
:200283008AE4F090E68B7418F090E6A07480F022ED60488E828F83A3E0FDBDA03E8E828FF3
:2002A30083A3A3A3A3E0FCA3E0FD4C702E74062EF582E43FF583E0FEA3E0FFBE011DBF0031
:2002C3001A90E7407401F090E6B5F090E68AE4F090E68B04F090E6A003F02290E6A074014B
:2002E300F07481F022AF8275B3FF75B5FF75B40775A0008F9075B00075A00175A00075B3A7
:200303000075B50075A002AFB07E00AC907D00EC4EF582ED4FF5838EA022AF8275B3FF7581
:20032300B5FF75B40775A0008F9075B00075A00175A0008564B085639075A00475A0067598
:20034300A00075B30075B50022AD82AE83AFF07B007C00750F0A8C108D828E838FF01215A0
:2003630033F87A0088828A83C007C006C005C004C003120AA0E5828583F0D003D004D0054E
:20038300D006D00745F060070DBD00CC0E80C98D088E098F0A8D828E838FF0121533FABAB2
:2003A300303674012DF508E43EF5098F0A850882850983850AF0121533FFBF78028003BF09
:2003C30058100508E4B508020509750F107510008006750F087510007408B50F08E4B51053
:2003E3000474018001E4FF740AB50F08E4B5100474018001E4F5137410B50F08E4B5100447
:2004030074018001E4F512A808A909AA0A888289838AF0121533F511700302052A8B0D8C2A
:200423000E850F638510648B828C83C007C002C001C000120B6085820B85830CD000D00151
:20044300D002D007EF602A74D02511501DE51124C84017AD117E00ED24D0FDEE34FFFEED31
:20046300250BFBEE350CFC020522850D82850E8322E513602A74D02511501DE51124C64025
:2004830017AD117E00ED24D0FDEE34FFFEED250BFBEE350CFC020522850D82850E8322E56C
:2004A30012700302051E74D02511501CE51124C64016AD117E00ED24D0FDEE34FFFEED2528
:2004C3000BFBEE350CFC8057888289838AF0121533FEBE6100401FEE2499401AC0078E054C
:2004E3007F0074A92DFD74FF3FFFED250BFBEF350CFCD0078029BE41004019EE24B9401447
:200503007D0074C92EFE74FF3DFDEE250BFBED350CFC800B850D82850E8322900000220871
:20052300B80001090204108B828C8322AD82AE83AFF07563A475641D75658075660575671B
:20054300008D828E838FF0C007C006C005120A25E5828583F0D005D006D00745F070277445
:20056300AAC0E0741DC0E07480C0E0C016C017C018120C38E58124FAF58185168285178358
:200583008518F002151A7563C375641D7565807566057567008D828E838FF0C007C006C007
:2005A30005120A25E5828583F0D005D006D00745F0702774C9C0E0741DC0E07480C0E0C0E3
:2005C30016C017C018120C38E58124FAF5818516828517838518F002151A7563E175641D5A
:2005E30075658075660C7567008D828E838FF0C007C006C005120A25E5828583F0D005D0A5
:2006030006D00745F0702774EFC0E0741DC0E07480C0E0C016C017C018120C38E58124FA07
:20062300F5818516828517838518F002151A75630C75641E7565807566047567008D828EBA
:20064300838FF0C007C006C005120A25E5828583F0D005D006D00745F0705B751DA2751E5A
:200663001D751F808D828E838FF0C007C006C005120937751D11751E1E751F809000007596
:20068300F00012093712034CAB82751D11751E1E751F8090000075F000C003120937120300
:2006A3004CAA82AC83D0038A638C648B8212031DD005D006D00775631375641E756580756E
:2006C30066047567008D828E838FF0C007C006C005120A25E5828583F0D005D006D0074579
:2006E300F070527563208D828E838FF0120B24AD82AE83AFF00DBD00010E8D828E838FF0F6
:2007030012034C1202E8AE82AF83C006C0077418C0E0741EC0E07480C0E0C016C017C01813
:20072300120C38E58124F8F5818516828517838518F002151A90000022AE82AF83E0FDBDC0
:20074300012B74042EFBE43FFC74082BFBE43CFC7A007516407517E08A188B828C838AF003
:2007630012052F85821485831590000022BD027290E0007402F00EBE00010F8E828F83E061
:2007830090E001F08E828F83E0F490E002F090E003E4F0AC14AD157E007F0090E004ECF087
:2007A300EDA3F0EEA3F0EFA3F090E00804F090E009E4F090E00AF090E00BF0756340756434
:2007C300E085146585156690E00C12090CAE14AF15740C2EFEE43FFF8E828F83E4F514F53D
:2007E300152290000022C0E0C082C0837519015391EF90E65B7401F090E659C4F0D083D0AA
:2008030082D0E03290E6007410F090E60B7403F0011590E6047480F090E611E053E07FF022
:2008230090E610E053E07FF090E61274A2F090E6A3E4F090E61474E2F090E6A5E4F090E6FD
:2008430013E053E07FF090E615E053E07FF090E6587410F090E65AC4F0015E90E60474825E
:20086300F0016690E6497482F0016E90E6497482F0017690E6047486F0017E90E604E4F0BD
:200883001201D775820112154F7E007F007C007D00EE4F703790E6A3E020E23090E690E012
:2008A300FA7B0090E691E0F87900E84203E942028B8274F02AF583E4F090F00012073CACA6
:2008C30082AD8390E691E4F07E007F00EC4D60C1E51960BD7563007564E08C658D6690F819
:2008E30000C007C006C005C00412090CD004D005D006D00790E698EDF001FE90E699ECF08D
:090903007C007D008D19020894AE
:201D56001201000200000040371321100000010203010904000002FE030100070502024035
:201D76000000070586024000000902000001010080FA681D711D781D00007F1D1D1E2D1E28
:201D96003F1E561D000001901D03921D20002A49444E3F004472456C656374726F2C534155
:201DB60047313032312C534E302C52300050524F443F0050524F44204D4F44454C2C53415D
:201DD6004731303231492C2D2C2D0049444E2D53474C542D4157473F005369676C656E7484
:201DF60020546563686E6F6C6F676965732C202C202C202C200053455420002C0047455481
:201E16002000253034580064724064726C656374726F2E636F6D00646F63746F7265642055
:101E36005341473130323149003030303030300094
:20090C00AA82AB83AC63AD64AE65AF66EE60010FEF601775AF078A9B8B9A8C9E8D9D90E626
:0B092C007CE090E67BF0DEF6DFF422BA
:20093700AD82AE83AFF0ED4E60068D1A8E1B8F1CE51A451B7006900000F5F022AD1AAE1B09
:20095700AF1C8D828E838FF01215336031AD1AAE1BAF1C8D828E838FF0121533F563851DDD
:2009770082851E83851FF0120B24AD82AE83AFF0ED4E600A051AE4B51AC2051B80BEAD1A86
:20099700AE1BAF1CAA1AAB1BAC1C8A828B838CF01215336059AA1AAB1BAC1C8A828B838CB9
:2009B700F0121533F563851D82851E83851FF0C007C006C005120B24AA82AB83D005D00608
:2009D700D007EA4B601EAA1AAB1BAC1C8A828B838CF0E4120B08051AB51A02051B8D828ED8
:2009F700838FF022051AE4B51A9A051B8096E4F51AF51BF51C8D828E838FF01215336007A6
:0E0A17008D828E838FF02290000075F00022F9
:200A2500AD82AE83AFF0E5664567700490000022AA63AB64AC65A866A96718B8FF0119E879
:200A45004960368D828E838FF0121533F5686029C000C0018A828B838CF0121533F9B5684C
:200A6500028006D001D0008010D001D0000DBD00010E0ABA00C40B80C18D828E838FF012B9
:1B0A85001533FD7F008A828B838CF0121533FA7E00EDC39AF582EF9EF5832242
:200AA000AE82AF83BE2005BF0002802CBE0C05BF00028024BE0A05BF0002801CBE0D05BF97
:200AC00000028014BE0905BF0002800CBE0B05BF000280047F0080027F01EFFE3395E08EB0
:040AE00082F58322F6
:06009800E478FFF6D8FD3C
:010AE40032DF
:010AE50032DE
:1F0AE600AC82AD83AE64AF65BE0004EF600C1F0FE563120B08A3DEFADFF88C828D832223
:010B050032BD
:200076007900E94400601B7A00901E55780075923EE493F2A308B800020592D9F4DAF2759C
:0200960092FFD7
:010B060032BC
:010B070032BB
:030100000215F8ED
:03010400021518C9
:03010800020B8661
:03010C00020C8E54
:03011000021532A3
:03011400021C1FAB
:03011800020B8354
:03011C000201B825
:03012000020C8648
:03012400021C1D9D
:03012800020C873F
:03012C00021C1E94
:03013000021C4A64
:03013400020B2398
:03013800020B5E59
:03013C00020B7F34
:030140000207E9CA
:030144000201B8FD
:03014800021C177F
:03014C00021C187A
:03015000021C1975
:03015400021C1A70
:03015800021C1B6B
:03015C00021C1C66
:030160000215196C
:030164000201B8DD
:030168000201B8D9
:03016C000201B8D5
:03017000020C85F9
:03017400020C88F2
:03017800020C8AEC
:03017C00020C8CE6
:03018000020C89E5
:03018400020C8BDF
:03018800020C8DD9
:03018C00020C8FD3
:03019000020B81DE
:03019400020B84D7
:03019800020B87D0
:03019C00020B89CA
:0301A000020B82CD
:0301A400020B85C6
:0301A800020B88BF
:0301AC00020B8AB9
:0301B000020B7DC2
:0301B400021C3DED
:0101B8003214
:1B0B080020F71130F6138883A88220F509F6A8837583002280FEF280F5F022EC
:010B2300329F
:200B2400AD82AE83AFF08D828E838FF0121533FC600DECB5630280070DBD00EA0E80E78D0D
:190B4400828E838FF0121533B563078D828E838FF02290000075F0002235
:010B5D003265
:010B5E003264
:010B5F003263
:1D0B6000E5828563F0A4C582C0F08564F0A4D0F025F0C5838563F0A42583F5832246
:010B7D003245
:010B7E003244
:010B7F003243
:010B80003242
:010B81003241
:010B82003240
:20009E007800E84400600A790075923EE4F309D8FC7800E84400600C7900903E00E4F0A3F4
:0400BE00D8FCD9FA97
:010B8300323F
:010B8400323E
:010B8500323D
:010B8600323C
:010B8700323B
:010B8800323A
:010B89003239
:010B8A003238
:200B8B00C028858128C082058105810581E52824FBF8A9280909E6F70809E6F70809E6F7A0
:200BAB00A828080886820886830886F0121533FAA3121533FBA3121533FF74012AFCE43BB1
:200BCB00FD8F06A828080886820886830886F0EC120B08A3ED120B08A3EE120B088A828BEE
:200BEB00838FF0A82808E6120B08852881D0282285822585832685F02775362575370075D6
:200C0B00384085213985223A85233B85243C900B8B120D2FAE82AF83AB25AC26AD278B8270
:200C2B008C838DF0E4120B088E828F8322C028E581F52824F8FF8F3CE52824FBFF8F36751A
:200C4B003700753840E52824F8F8863908863A08863B900B8B120D2FAE82AF83E52824FBF2
:1A0C6B00F886030886040886058B828C838DF0E4120B088E828F83D02822EB
:010C8500323C
:010C8600323B
:010C8700323A
:010C88003239
:010C89003238
:010C8A003237
:010C8B003236
:010C8C003235
:010C8D003234
:010C8E003233
:010C8F003232
:010C90003231
:200C9100AF82C02CC02DC02E120C9E8007C02AC02B8F82221581158115810534E4B5340236
:200CB100053522AF8274302FFF24C6500B74072FFFE52960034307208F82020C91E582FFE5
:200CD100C4540FF582C007120CB4D007740F5FF582020CB4858263AB2FAC30AD31AE32AA52
:200CF100337565208A07EF2FF564EE2354014564FAEB2BFBEC33FCED33FDEE33FEC3EA95FB
:200D1100634008EAC39563FA430301E56514FF8F6570D18B2F8C308D318E328A33228582C5
:200D31002A85832B85362C85372D85382EE4F534F535AD39AE3AAF3B8D828E838FF01215D5
:200D510033FC74012DF539E43EF53A8F3BECFF7003021510BF250280030215087E007D0060
:200D71008E3D8E3E7A007B008E3F7C008E40E4F548F5497541FF7542FF85394A853A4B855E
:200D91003B4C854A82854B83854CF0121533F54DA385824A85834B854A39854B3A854C3B55
:200DB1007425B54D08854D82120C91808574D0254D4003020E71E54D24C65003020E717499
:200DD100FFB54155B5425285486385496490000AC006C005C004C003C002120B6085824ECD
:200DF10085834FD002D003D004D005D006854D50755100E550254EF550E551354FF551E5AD
:200E11005024D0F548E55134FFF549E54845496003020D937D01020D9385416385426490D5
:200E3100000AC006C005C004C003C002120B60858250858351D002D003D004D005D00685ED
:200E51004D4E754F00E54E2550F550E54F3551F551E55024D0F541E55134FFF542020D9394
:200E7100742EB54D1574FFB54105B542028003020D93E4F541F542020D93749F254D500E46
:200E9100E54D24854008534DDF75290180037529007420B54D03020F3D742BB54D03020F43
:200EB10037742DB54D0280797442B54D03020F437443B54D03020F4E7444B54D0302119BB7
:200ED1007446B54D030211B17448B54D03020D937449B54D0302119B744AB54D03020D9346
:200EF100744CB54D028050744FB54D030211A27450B54D030210E67453B54D028076745486
:200F1100B54D03020D937455B54D030211A77458B54D030211AC745AB54D03020D93021179
:200F3100B57E01020D93753D01020D93753E01020D937B01020D93753F01020D93EB600A55
:200F5100E53C14F9893C8750800DE53C24FEF54E854E3CA94E8750855082C006C005C00420
:200F7100C003C002120C91D002D003D004D005D0060211D7E53C24FDF55085503CA9508706
:200F91004A09874B09874C1919854A2F854B30854C31854A82854B83854CF0C006C005C05D
:200FB10004C003C00212151A858250858351D002D003D004D005D00674FFB54109B5420613
:200FD100855041855142EE704FC3E5509548E55195495044E548C39550F54EE5499551F587
:200FF1004F854E4A854F4B154E74FFB54E02154FE54A454B601C758220C006C005C004C0B5
:2010110003C002120C91D002D003D004D005D00680CF854E48854F4985414E85424F852FC2
:20103100828530838531F0121533F54A854A45604FC3E4954E7480854FF063F08095F050F9
:201051003F154E74FFB54E02154F854582C006C005C004C003C002120C91D002D003D004B9
:20107100D005D006852F4A85304B85314C054AE4B54A02054B854A2F854B30854C31809E12
:20109100EE70030211D7C3E5509548E551954940030211D7E548C39550F550E5499551F5BB
:2010B1005185504E85514F155074FFB550021551E54E454F70030211D1758220C006C00581
:2010D100C004C003C002120C91D002D003D004D005D00680CCE53C24FDF54E854E3CA94E0C
:2010F100874A09874B09874C1919854A2F854B30854C31853146748025465005754E4380EF
:201111001974A025465005754E50800E74C025465005754E498003754E58854E82C006C0B7
:2011310005C004C003C002120C9175823A120C91758230120C91758278120C91D002D00328
:20115100D004D005D0067449B54E0280217450B54E02801A853082C006C005C004C003C030
:2011710002120CCED002D003D004D005D006852F82C006C005C004C003C002120CCED00284
:20119100D003D004D005D006803C7A0175400A8035754008803075400A802B7540108026FF
:2011B1007C018022854D82C006C005C004C003C002120C91D002D003D004D005D00680067E
:2011D100855048855149EC6068E53C24FCFC8C3C8C018752098753098754098755191919AC
:2011F10085522F855330855431855532752F4675301E753180852F5285305385315474015A
:201211002552F54AE43553F54B85544C854A2F854B30854C318552828553838554F0121592
:2012310033FC8C527003020D43855282120C9180C4E5407003020D43EB603FE53C14F98954
:201251003C87048C5275530075540075550085522F855330855431855532EA60030212F404
:20127100852F5275530075540075550085522F8553308554318555328069E53F6025E53C25
:2012910024FCFC8C3C8C01875209875309875409875519191985522F85533085543185550A
:2012B100328040E53C24FEFC8C3C8C018703098704198B52ECF5533395E0F554F55585523D
:2012D1002F855330855431855532EA7016852F52853053F554F55585522F85533085543187
:2012F100855532EA602AE53230E723C3E4952FF552E49530F553E49531F554E49532F55581
:2013110085522F85533085543185553280027A007C017974E4F552F553753300854082C010
:2013310006C005C004C002C001120CE5D001D002D004D005D006EC700DE533C4F550E7FBF9
:201351004550F7198002A7330552E4B552020553ECB40100E433FCE52F4530453145327045
:20137100B88947855243855344E54845497005754801F549ED7043EE7040854852854953F4
:20139100AB430B8B50755100C3E5509552E55195535021758220C006C005C004C002120CEE
:2013B10091D002D004D005D006155274FFB55202155380CC855248855349EA601D75822DD8
:2013D100C006C005C004120C91D004D005D006154874FFB5480215498046E543454460403B
:2013F100E53D601D75822BC006C005C004120C91D004D005D006154874FFB54802154980F1
:201411001FE53E601B758220C006C005C004120C91D004D005D006154874FFB5480215493D
:20143100EE703C854852854953AA52AB53155274FFB552021553C3E5439AE5449B5041EDB5
:2014510060067A307B0080047A207B008A82C006C005C004120C91D004D005D00680CAC3C1
:20147100E5439548E5449549500FE548C39543F550E5499544F551800DE4F550F551800614
:20149100855250855351A947854352854453AA52AD53155274FFB552021553EA4D602EECCD
:2014B100B40100E433FC700A09E7C4540FFD8D3380078705740F5DF533853382C006C00426
:2014D100C001120CB4D001D004D00680C1EE7003020D43AD50AE518D038E041DBDFF011EE3
:2014F100EB4C7003020D43758220C006C005120C91D005D00680E08F82120C91020D4385EC
:06151100348285358322BF
:0B1E46003C4E4F20464C4F41543E00E4
:0115170032A1
:0115180032A0
:01151900329F
:18151A00AA82AB831215336003A380F8C3E5829AF582E5839BF58322AF
:011532003286
:0D006900758174121C39E582600302006687
:1C15330020F71430F6148883A88220F507E6A88375830022E280F7E49322E022C7
:20154F00AF82755700755800D2E890E668E043E008F090E65CE043E001F090E65D7401F021
:20156F00D2AF90E680E020E10890E680E043E002F0EF600E90E680E043E008F090000A1217
:20158F001D1490E680E053E0F7F022AF82BF00028037BF01028036BF02028039BF04028017
:2015AF0038BF06028037BF08028036BF80028019BF8102801CBF8202801BBF8402801ABFB3
:2015CF0086028019BF881E801890E6A02290E6A12290E6A22290E6A32290E6A42290E6A5A1
:2015EF002290E6A62290000022C020C0E0C0F0C082C083C007C006C005C004C003C002C0BA
:20160F0001C000C0D075D000C08675860090E6B8E0FFE4BF800104FE601990E6B9E0FDBD6F
:20162F00061190E6BAE0FCA3E0F5828C62121C3E02186FEF702A90E6B9E0FDBD092290E6A8
:20164F00BAE0F582121D38E582600990E6A07480F002186F90E6A07401F07481F002186FC7
:20166F00EE600E90E6B9E0FDBD0806121C6F02186F8F05BD013190E6B9E0FDBD0B2990E60C
:20168F00BCE0FD90E6BAE0F5618D82121C20E582600990E6A07480F002186F90E6A0740101
:2016AF00F07481F002186FE4BF810104FD601490E6B9E0FCBC0A0C90E6BCE0F582121C553A
:2016CF0002186FEF703690E6B9E0FCBC032E90E6BAE0FBA3E0FCBB010FBC000C755701906B
:2016EF00E6A07480F002186FBB0205BC0002800302186F90E6A07480F002186FEE603290C9
:20170F00E6B9E0702CAE56E55725E0FC420690E740EEF090E741E4F090E6B504F090E68AD6
:20172F00E4F090E68B7402F090E6A07480F002186FED602890E6B9E0702290E740E4F090AB
:20174F00E741F090E6B504F090E68AE4F090E68B7402F090E6A07480F002186FBF02028042
:20176F000302181A90E6B9E0FEBE03028008BE0102800302181A90E6BAE0FDA3E0FE4D6018
:20178F000302186F90E6BCE0F58212159AAD82AE83ED4E700302186F90E6B9E0FCBC0318EB
:2017AF008D828E83E0FC4304018D828E83ECF090E6A07480F002186F90E6BCE0F582C00608
:2017CF00C005121C4BE582D005D006700302186F8D828E83E0FC5304FE8D828E83ECF090D1
:2017EF00E6BCE0FDA3E08D0453040F530580E4C423CDC423541F6DCD541FCD6DCDFE90E6EF
:20180F0083ED4CF0E043E020F08055BF824C90E6B9E0704690E6BCE0F58212159AAE82AFAA
:20182F0083EE4F603B8E828F83E0FE5306017F00EE4FB40100B3E433FF90E740F090E7414B
:20184F00E4F090E6B504F090E68AE4F090E68B7402F090E6A07480F0800690E6B81201E0AA
:20186F005391EF90E65D7401F0D086D0D0D000D001D002D003D004D005D006D007D083D099
:20188F0082D0F0D0E0D02032AE82AF837401B55D28E55E70248E828F83E493FCA3E493FD91
:2018AF008C638D648C828D83E493FC8C6575660090E00012090C021AE57406B55D3BE55E3A
:2018CF0070378E828F83A3A3E493FCA3E493FD4C700A90E6A07401F07481F0228C028D03FA
:2018EF008A638B648C828D83E493FC8C6575660090E00012090C021AE57402B55D028003FB
:20190F00021A0E8E828F83A3A3A3A3E493FDC3E55E9D4003021A0E8E828F83A3A3A3A3A30B
:20192F00E493FCA3E493FDE55E75F002A42CF582ED35F0F583E493FCA3E493FD74092CFA66
:20194F00E43DFB8C008D01886389648C828D83E493F9896575660090E000C005C004C00357
:20196F00C00212090CD002D003D004D0058C828D83E4932400FCE434E0FD8C5F8D608A8293
:20198F008B83E493F8A3E493F98863896488828983E493F88865756600855F82856083C0F5
:2019AF0005C004C003C00212090CD002D003D004D0058A828B83E493F8A3E493F988828926
:2019CF0083E4932CFCE43DFD74022AFAE43BFB8A828B83E493F8A3E493F948709D90E002A1
:2019EF00E0FAA3E0FB4A6003021AE5ECC39400FCED94E0FD90E002ECF0EDA3F0021AE574F2
:201A0F0003B55D0474018001E4FD601EE55E701A75635175641E901E51E493FC8C6575661E
:201A2F000090E00012090C021AE5ED7003021ADBAC5E7D00EC24FFFAED34FFFB74072EF55F
:201A4F0082E43FF583E493F87900C3EA98EB648089F063F08095F0507374082EF582E43F86
:201A6F00F583E493FEA3E493FF1CBCFF011DEC2CFCED33FDEC2EF582ED3FF583E493FEA3DE
:201A8F00E493FF90E0007402F090E00104F074012401FCE434E0FD8E828F83E493FB6036D1
:201AAF000EBE00010F8C828D83EBF074012CFAE43DFB8A828B83E4F0042AFCE43BFD90E0E7
:201ACF0000E0FB0B0B90E000EBF080CB90E6A07401F07481F0227E007FE090E6B57401F081
:201AEF0090E6B3EFF090E6B4EEF090E6A07480F022AE82AF83A3A3A3A3A3E493F56DA3E4BA
:201B0F0093F56E74042EFEE43FFF7565008E828F83E493FAC3E5659A400122E56575F002D2
:201B2F00A4256DF582E56E35F0F583E493F566A3E493F56774092566F568E43567F56979F5
:201B4F0000856682856783A3A3A3A3A3E493FAB558028003021C12A868AA6988828A83E41A
:201B6F0093FBA3E493FD8B828D83A3E493F56A7404B56A3588828A83E493F56BA3E493F552
:201B8F006C856B82856C83A3A3E493B56311856B82856C83A3A3A3E493FBB5640280047BA3
:201BAF000080027B018B0180427405B56A3DE9603A88828A83E493FBA3E493FD8B828D83B5
:201BCF00A3A3E493FD740F5DFC530580E423CDC423541F6DCD541FCD6DCD30E40244E0FB71
:201BEF0090E683ED4CF0E043E020F0740228F8E43AFA88828A83E493FBA3E493FD4B6003A5
:081C0F00021B6A0565021B1CA3
:041E51000403090479
:011C1700329A
:011C18003299
:011C19003298
:011C1A003297
:011C1B003296
:011C1C003295
:011C1D003294
:011C1E003293
:011C1F003292
:191C2000AF82E561700F8F63856164901D98121B007582012275820022D4
:041C3900758200228E
:011C3D003274
:0C1C3E0085825D85625E901D98021897FB
:011C4A003267
:0A1C4B0090E6A07480F0758201227B
:1A1C550090E740E4F090E6B504F090E68AE4F090E68B04F090E6A003F022D7
:1C1C6F0090E740E558F090E6B57401F090E68AE4F090E68B04F090E6A003F022F1
:201C8B00E583700BE58224FA400122B4001122E5826003D5E0FD0075E0FED583F674F9D528
:201CAB00E0FD22C007C006C001C000AE82AF83EE2EF8EF33F9EE28FEEF39FF90E600E0F8F2
:201CCB00794C20E416C3EF13CE13CEFF795AE820E309C3EF13CE13CEFF7963E58124FAF815
:201CEB00E926C313C313F9C3EE99F582EF9400F583D000D001D006D007500122021C8B748B
:201D0B0011C0E0121CAE158122C007C006AE82AF837411C0E0EE4F600D1EBEFF011F900327
:0D1D2B00E8121CAE80EF1581D006D0072213
:1E1D3800E582FF6003BF01128F587563FF7564FF901D98121B007582012275820022B7
:00000001FF
