:0600000002006902111666
:03000B0002118F50
:03001300021137A0
:03001B000211913E
:030023000211C8FF
:03002B000211B00F
:030033000211B205
:03003B000211C9E6
:03004300020100B7
:03004B0002111788
:03005300020100A7
:03005B0002113857
:030063000211394E
:0800C200E4F52DF52E020066A5
:03006600020CF693
:2001C300AEB16306408EB122E582600453B1BF2243B1402243B6407582000201CBAE82AFD0
:2001E30083E0FDE4BDA10104FD70030202938E828F83A3E0FCBC070280030202938E828F2F
:2002030083A3A3A3A3E0FBA3E0FC4B600302029374062EF582E43FF583E0FBA3E0FCBB1846
:200223006FBC006C90E7407401F090E741E4F090E742F004A3F090E744E4F090E74504F0FD
:20024300754B00754C06754D0090E74675F00012111890E74CE4F004A3F090E74E7407F097
:2002630090E74F740FF0754B00754C08754D0090E75075F00012111890E6B57401F090E68A
:200283008AE4F090E68B7418F090E6A07480F022ED60488E828F83A3E0FDBDA03E8E828FF3
:2002A30083A3A3A3A3E0FCA3E0FD4C702E74062EF582E43FF583E0FEA3E0FFBE011DBF0031
:2002C3001A90E7407401F090E6B5F090E68AE4F090E68B04F090E6A003F02290E6A074014B
:2002E300F07481F022AF8275B3FF75B5FF75B40775A0008F9075B00075A00175A00075B3A7
:200303000075B50075A002AFB07E00AC907D00EC4EF582ED4FF5838EA022AF8275B3FF7581
:20032300B5FF75B40775A0008F9075B00075A00175A000854CB0854B9075A00475A00675C8
:20034300A00075B30075B50022AD82AE83AFF07B007C0075280A8C298D828E838FF0121172
:20036300E5F87A0088828A83C007C006C005C004C0031210D2E5828583F0D003D004D00564
:20038300D006D00745F060070DBD00CC0E80C98D218E228F238D828E838FF01211E5FABAB9
:2003A300303674012DF521E43EF5228F238521828522838523F01211E5FFBF78028003BFC5
:2003C30058100521E4B52102052275281075290080067528087529007408B52808E4B52972
:2003E3000474018001E4FF740AB52808E4B5290474018001E4F52C7410B52808E4B52904CA
:2004030074018001E4F52BA821A922AA23888289838AF01211E5F52A700302052A8B268CE6
:200423002785284B85294C8B828C83C007C002C001C000121192858224858325D000D001CC
:20044300D002D007EF602A74D0252A501DE52A24C84017AD2A7E00ED24D0FDEE34FFFEEDE6
:200463002524FBEE3525FC02052285268285278322E52C602A74D0252A501DE52A24C64076
:2004830017AD2A7E00ED24D0FDEE34FFFEED2524FBEE3525FC02052285268285278322E5EF
:2004A3002B700302051E74D0252A501CE52A24C64016AD2A7E00ED24D0FDEE34FFFEED25C4
:2004C30024FBEE3525FC8057888289838AF01211E5FEBE6100401FEE2499401AC0078E056C
:2004E3007F0074A92DFD74FF3FFFED2524FBEF3525FCD0078029BE41004019EE24B9401415
:200503007D0074C92EFE74FF3DFDEE2524FBED3525FC800B8526828527832290000022080D
:20052300B80001090204108B828C8322AE82AF83AB4BAC4CAD4D8B828C838DF0EE12113A74
:20054300A3EF12113AAB4EAC4FAD508B828C838DF0E412113AA312113AF553F554F551F512
:20056300528E828F83E0F9605DB92C458E828F83E4F08B828C838DF01211E5F9A31211E509
:2005830049701874012EF9E43FFA8B828C838DF0E912113AA3EA12113A800785538285544B
:2005A30083228B828C838DF0E912113AA3EA12113A0EBE00010F0551E4B55102055285517F
:2005C30053855254809B8B828C838DF01211E5FBA31211E54B700490FFFF22855382855496
:2005E300832285824E85834F7C007D00C3EC9404ED6480948050708C03EB2B25E0FB740C9D
:20060300C39BFB8BF005F0AB4EAA4F8007C3EA13FAEB13FBD5F0F653030FBB0A005022A8E3
:200623004BA94CAA4D8B0774302FFF888289838AF012113A740128F54BE439F54C8A4D809D
:200643001EAA4BAE4CAF4D74372BFB8A828E838FF012113A74012AF54BE43EF54C8F4D0C9A
:20066300BC00010D0205EFAD4BAE4CAF4D8D828E838FF0E402113AAE82AF83903E06E4F0EF
:20068300A3F0903E00E0F53CA3E0F53DAA3CAB3DEA24F4FAEB34FFFB8A008B017A007B0042
:2006A300903E08E8F0E9A3F0EAA3F0EBA3F08E348F35F536F537F538F539E82EF582E93F25
:2006C300F583E4F0901A5675F080C007C006120ED3853C82853D83120E69758220120E1C02
:2006E300903E02E0F53EA3E0F53FA3E0F540A3E0F541853E82853F83120E69D006D0078E9C
:20070300038F047D00754B5C754C1A754D80754E058D4F8B828C838DF0C007C00612105747
:20072300E5828583F0D006D00745F07030754B62754C1A754D80852F828530838531F01270
:200743000F29852F828530838531F01211CCAC82AD83903E06ECF0EDA3F0020BF58E038FAB
:20076300047D00754B7B754C1A754D80754E058D4F8B828C838DF0C007C006121057E582F3
:200783008583F0D006D00745F07030754B81754C1A754D80852F828530838531F0120F2920
:2007A300852F828530838531F01211CCAC82AD83903E06ECF0EDA3F0020BF58E038F047D02
:2007C30000754B99754C1A754D80754E0C8D4F8B828C838DF0C007C006121057E5828583E7
:2007E300F0D006D00745F07030754BA7754C1A754D80852F828530838531F0120F29852FEE
:20080300828530838531F01211CCAC82AD83903E06ECF0EDA3F0020BF58E038F047D0075E0
:200823004BC4754C1A754D80754E088D4F8B828C838DF0C007C006121057E5828583F0D014
:2008430006D00745F06003020AFB74082EF532E43FF533754B36754C00754D40754E3875D4
:200863004F0075504085328285338312052FAA82AB83BAFF05BBFF028003020962E532C3C9
:200883009534F53CE5339535F53D903E08E0F8A3E0F9A3E0A3E0E8C3953CF53AE9953DF5BC
:2008A3003B85324B85334C853A4D853B4E90E000120EFE90E691E4F090E6A3E020E2F990ED
:2008C300E690E0F9780090E691E07C004200EC4201883C893D903E08E0F542A3E0F543A3A5
:2008E300E0F544A3E0F545A83CA93D7C007D00903E08E82542F0E93543A3F0EC3544A3F05B
:20090300ED3545A3F07532007533E0E53A2532FCE53B3533FD8C828D83754B00754CF085A0
:200923003C4D853D4E120EFEA83CA93DAC3AAD3BEC28F8ED39F9E82532F582E93533F583BB
:20094300E4F0754B36F54C754D40754E38F54F75504085328285338312052FAA82AB8374BB
:20096300012AFCE43BFDEC2532F532ED3533F533901ACD75F080C003C002120ED3A936ACEB
:20098300377D0089828C838DF0120ED3758220120E1CA938AC397D0089828C838DF0120EC9
:2009A300D3D002D003C3E49A74808BF063F08095F0E433FD602DAA32AB337C00754BD575D3
:2009C3004C1A754D80754E088C4F8A828B838CF0C005121057E5828583F0D00545F0600326
:2009E300020856ED604774092532FCE43533FD901ADE75F080C005C004120ED3D004D00555
:200A03008C828D83E0FB7A008B828A83C005C004120E69D004D0058C828D83E0FC7D0074A0
:200A2300022CFCE43DFD8C828D83120E69901AEC75F080120ED3903E08E0FAA3E0FBA3E0A5
:200A4300FCA3E0FDC3EA953EEB953FEC9540ED95414003020BF590E691E4F090E6A3E0201B
:200A6300E2F990E690E0FC7D0090E691E07A004205EA4204903E08E0F542A3E0F543A3E036
:200A8300F544A3E0F5458D008C017A007B00903E08E82542F0E93543A3F0EA3544A3F0EB64
:200AA3003545A3F0901AEE75F080C005C004120ED3D004D0058D828C83C005C004120E6954
:200AC300758220120E1C903E08E0F8A3E0F9A3E0A3E088828983120E69D004D0057A007B53
:200AE300008A008B01C3E89DE99C4003020A3974022AFAE43BFB80E98E038F047D00754B0A
:200B0300F5754C1A754D80754E048D4F8B828C838DF0C007C006121057E5828583F0D00649
:200B2300D00745F070568E038F04FD750B54750C1A750D808B828C838DF0120F69750BFAB1
:200B4300750C1A750D8090000075F000120F6912034CAC82750BFA750C1A750D8090000040
:200B630075F000C004120F6912034CAB82AD83D0048B4B8D4C8C8212031D80768E038F0424
:200B83007D00754BFC754C1A754D80754E048D4F8B828C838DF0C007C006121057E58285CE
:200BA30083F0D006D00745F07048FD754B208E828F838DF0121156AD82AE83AFF00DBD0067
:200BC300010E8D828E838FF012034C1202E8852F4B85304C85314D1205E5852F828530839A
:200BE3008531F01211CCAE82AF83903E06EEF0EFA3F0903E06E0FEA3E08E82F58322AE82B8
:200C0300AF83E0FDBD015574042EFBE43FFC74082BF9E43CFA89488A498B828C83E0F8A3FA
:200C2300E0FAA3E0FBA3E0FC752F407530E0753100903E00E546F0E547A3F0903E02E8F07B
:200C4300EAA3F0EBA3F0ECA3F085488285498312067A85822D85832E90000022BD02729008
:200C6300E0007402F00EBE00010F8E828F83E090E001F08E828F83E0F490E002F090E00321
:200C8300E4F0AC2DAD2E7E007F0090E004ECF0EDA3F0EEA3F0EFA3F090E00804F090E00914
:200CA300E4F090E00AF090E00BF0754B40754CE0852D4D852E4E90E00C120EFEAE2DAF2E95
:200CC300740C2EFEE43FFF8E828F83E4F52DF52E2290000022C0E0C082C083754A0153915B
:200CE300EF90E65B7401F090E659C4F0D083D082D0E032120DFC901B0175F080120ED39093
:200D0300E60B7403F0A10A90E6047480F090E611E053E07FF090E610E053E07FF090E612D6
:200D230074A2F090E6A3E4F090E61474E2F090E6A5E4F090E613E053E07FF090E615E05335
:200D4300E07FF090E6587410F090E65AC4F0A15390E6047482F0A15B90E6497482F0A16382
:200D630090E6497482F0A16B90E6047486F0A17390E604E4F01201D77582011212017E0074
:200D83007F007C007D00EE4F703290E6A3E020E22B90E690E0FA7B0090E691E0F87900E838
:200DA3004203E942028B468A4790F000120C01AC82AD8390E691E4F07E007F00EC4D60C6E8
:200DC300E54A60C2754B00754CE08C4D8D4E90F800C007C006C005C004120EFED004D00545
:190DE300D006D00790E698EDF0A1EE90E699ECF07C007D008D4A020D897D
:201A08001201000200000040371321100000010203010904000002FE030100070502024086
:201A28000000070586024000000902000001010080FA1A1A231A2A1A0000311A171B271BCF
:201A4800391B081A000001421A03441A20000D0A503A20002A49444E3F004472456C6563F6
:201A680074726F2C534147313032312C534E302C52300050524F443F0050524F44204D4F2E
:201A880044454C2C53414731303231492C2D2C2D0049444E2D53474C542D4157473F0053C3
:201AA80069676C656E7420546563686E6F6C6F676965732C202C202C202C200043313A5762
:201AC80056445420000D0A2070763A20005741564544415441000D0A2057415645444154E9
:201AE800413A20000A000D0A20723A200053455420002C004745542000446F63746F72652E
:201B08006420534147313032316920210D0A0064724064726C656374726F2E636F6D006493
:181B28006F63746F72656420534147313032314900303030303030008D
:200DFC0090E6087401F053877F75985AD29990E600E054F74410F0901B4075F080020ED331
:200E1C00E582903E0CF010990280FB903E0CE0F59922E582903E0DF0E0FFBF0A00500A8F32
:200E3C000674302EF582020E1C74372FF582020E1CE582903E0EF0E0FFC4540FF582C00727
:200E5C00120E2ED007740F5FF582020E2EAF83E582903E0FF0EFA3F0903E0FE0FEA3E0FF95
:200E7C00F582C007C006120E4DD006D0078E82020E4DAF82AE83ADF0FC903E11EFF0EEA381
:200E9C00F0EDA3F0ECA3F0903E11E0FCA3E0FDA3E0FEA3E0FF8E028F038A828B83C007C046
:200EBC0006C005C004120E69D004D005D006D0078C828D83020E69AD82AE83AFF08D828E75
:200EDC00838FF01211E5FC60188C820DBD00010EC007C006C005120E1CD005D006D0078001
:020EFC00DC22F6
:061B40000D0A2D3E2000FD
:200EFE00AA82AB83AC4BAD4CAE4DAF4EEE60010FEF601775AF078A9B8B9A8C9E8D9D90E68F
:0B0F1E007CE090E67BF0DEF6DFF422C2
:200F290085824E85834F85F050AA4BAB4CAC4DA84EA94FAF508A828B838CF01211E5FEA326
:200F4900AA82AB83888289838FF0EE12113AA3A882A983EE70DF854E82854F838550F02285
:200F6900AD82AE83AFF0ED4E60068D088E098F0AE50845097006900000F5F022AD08AE094F
:200F8900AF0A8D828E838FF01211E56031AD08AE09AF0A8D828E838FF01211E5F54B850BBB
:200FA90082850C83850DF0121156AD82AE83AFF0ED4E600A0508E4B508C2050980BEAD0882
:200FC900AE09AF0AAA08AB09AC0A8A828B838CF01211E56059AA08AB09AC0A8A828B838C63
:200FE900F01211E5F54B850B82850C83850DF0C007C006C005121156AA82AB83D005D00638
:20100900D007EA4B601EAA08AB09AC0A8A828B838CF0E412113A0508B5080205098D828ED3
:20102900838FF0220508E4B5089A05098096E4F508F509F50A8D828E838FF01211E560072B
:0E1049008D828E838FF02290000075F00022C1
:20105700AD82AE83AFF0E54E454F700490000022AA4BAB4CAC4DA84EA94F18B8FF0119E8E9
:201077004960368D828E838FF01211E5F5506029C000C0018A828B838CF01211E5F9B550E8
:20109700028006D001D0008010D001D0000DBD00010E0ABA00C40B80C18D828E838FF01281
:1B10B70011E5FD7F008A828B838CF01211E5FA7E00EDC39AF582EF9EF58322AE
:2010D200AE82AF83BE2005BF0002802CBE0C05BF00028024BE0A05BF0002801CBE0D05BF5F
:2010F20000028014BE0905BF0002800CBE0B05BF000280047F0080027F01EFFE3395E08E78
:0411120082F58322BD
:06009800E478FFF6D8FD3C
:0111160032A6
:0111170032A5
:1F111800AC82AD83AE4CAF4DBE0004EF600C1F0FE54B12113AA3DEFADFF88C828D8322FA
:011137003285
:200076007900E94400601B7A00901B4A781575923EE493F2A308B800020592D9F4DAF27595
:0200960092FFD7
:011138003284
:011139003283
:030100000212AA3E
:030104000211CA1B
:030108000211B829
:03010C000211C617
:030110000211E4F5
:030114000218D1FD
:030118000211B51C
:03011C000201B825
:030120000211BE0B
:030124000218CFEF
:030128000211BF02
:03012C000218D0E6
:030130000218FCB6
:0301340002115560
:0301380002119021
:03013C000211B1FC
:03014000020CD8D6
:030144000201B8FD
:030148000218C9D1
:03014C000218CACC
:030150000218CBC7
:030154000218CCC2
:030158000218CDBD
:03015C000218CEB8
:030160000211CBBE
:030164000201B8DD
:030168000201B8D9
:03016C000201B8D5
:030170000211BDBC
:030174000211C0B5
:030178000211C2AF
:03017C000211C4A9
:030180000211C1A8
:030184000211C3A2
:030188000211C59C
:03018C000211C796
:030190000211B3A6
:030194000211B69F
:030198000211B998
:03019C000211BB92
:0301A0000211B495
:0301A4000211B78E
:0301A8000211BA87
:0301AC000211BC81
:0301B0000211AF8A
:0301B4000218EF3F
:0101B8003214
:1B113A0020F71130F6138883A88220F509F6A8837583002280FEF280F5F022B4
:011155003267
:20115600AD82AE83AFF08D828E838FF01211E5FC600DECB54B0280070DBD00EA0E80E78D3F
:19117600828E838FF01211E5B54B078D828E838FF02290000075F0002267
:01118F00322D
:01119000322C
:01119100322B
:1D119200E582854BF0A4C582C0F0854CF0A4D0F025F0C583854BF0A42583F5832256
:0111AF00320D
:0111B000320C
:0111B100320B
:0111B200320A
:0111B3003209
:0111B4003208
:20009E007800E84400600A790075923EE4F309D8FC7815E84400600C7901903E00E4F0A3DE
:0400BE00D8FCD9FA97
:0111B5003207
:0111B6003206
:0111B7003205
:0111B8003204
:0111B9003203
:0111BA003202
:0111BB003201
:0111BC003200
:0111BD0032FF
:0111BE0032FE
:0111BF0032FD
:0111C00032FC
:0111C10032FB
:0111C20032FA
:0111C30032F9
:0111C40032F8
:0111C50032F7
:0111C60032F6
:0111C70032F5
:0111C80032F4
:0111C90032F3
:0111CA0032F2
:0111CB0032F1
:1811CC00AA82AB831211E56003A380F8C3E5829AF582E5839BF5832253
:0111E40032D8
:0D0069007581561218EBE5826003020066F7
:1C11E50020F71430F6148883A88220F507E6A88375830022E280F7E49322E02219
:20120100AF82750F00751000D2E890E668E043E008F090E65CE043E001F090E65D7401F002
:20122100D2AF90E680E020E10890E680E043E002F0EF600E90E680E043E008F090000A1268
:2012410019C690E680E053E0F7F022AF82BF00028037BF01028036BF02028039BF040280BA
:2012610038BF06028037BF08028036BF80028019BF8102801CBF8202801BBF8402801ABF04
:2012810086028019BF881E801890E6A02290E6A12290E6A22290E6A32290E6A42290E6A5F2
:2012A1002290E6A62290000022C020C0E0C0F0C082C083C007C006C005C004C003C002C00B
:2012C10001C000C0D075D000C08675860090E6B8E0FFE4BF800104FE601990E6B9E0FDBDC1
:2012E100061190E6BAE0FCA3E0F5828C1A1218F0021521EF702A90E6B9E0FDBD092290E6E5
:20130100BAE0F5821219EAE582600990E6A07480F002152190E6A07401F07481F00215210C
:20132100EE600E90E6B9E0FDBD08061219210215218F05BD013190E6B9E0FDBD0B2990E6FF
:20134100BCE0FD90E6BAE0F5198D821218D2E582600990E6A07480F002152190E6A074013D
:20136100F07481F0021521E4BF810104FD601490E6B9E0FCBC0A0C90E6BCE0F5821219072D
:20138100021521EF703690E6B9E0FCBC032E90E6BAE0FBA3E0FCBB010FBC000C750F019055
:2013A100E6A07480F0021521BB0205BC0002800302152190E6A07480F0021521EE6032900D
:2013C100E6B9E0702CAE0EE50F25E0FC420690E740EEF090E741E4F090E6B504F090E68AB8
:2013E100E4F090E68B7402F090E6A07480F0021521ED602890E6B9E0702290E740E4F0904E
:20140100E741F090E6B504F090E68AE4F090E68B7402F090E6A07480F0021521BF020280E4
:20142100030214CC90E6B9E0FEBE03028008BE010280030214CC90E6BAE0FDA3E0FE4D600D
:201441000302152190E6BCE0F58212124CAD82AE83ED4E700302152190E6B9E0FCBC03182F
:201461008D828E83E0FC4304018D828E83ECF090E6A07480F002152190E6BCE0F582C006AA
:20148100C0051218FDE582D005D00670030215218D828E83E0FC5304FE8D828E83ECF090C5
:2014A100E6BCE0FDA3E08D0453040F530580E4C423CDC423541F6DCD541FCD6DCDFE90E640
:2014C10083ED4CF0E043E020F08055BF824C90E6B9E0704690E6BCE0F58212124CAE82AF4D
:2014E10083EE4F603B8E828F83E0FE5306017F00EE4FB40100B3E433FF90E740F090E7419D
:20150100E4F090E6B504F090E68AE4F090E68B7402F090E6A07480F0800690E6B81201E0FB
:201521005391EF90E65D7401F0D086D0D0D000D001D002D003D004D005D006D007D083D0EA
:2015410082D0F0D0E0D02032AE82AF837401B51528E51670248E828F83E493FCA3E493FD72
:201561008C4B8D4C8C828D83E493FC8C4D754E0090E000120EFE0217977406B5153BE516D5
:2015810070378E828F83A3A3E493FCA3E493FD4C700A90E6A07401F07481F0228C028D034B
:2015A1008A4B8B4C8C828D83E493FC8C4D754E0090E000120EFE0217977402B5150280034E
:2015C1000216C08E828F83A3A3A3A3E493FDC3E5169D40030216C08E828F83A3A3A3A3A349
:2015E100E493FCA3E493FDE51675F002A42CF582ED35F0F583E493FCA3E493FD74092CFA00
:20160100E43DFB8C008D01884B894C8C828D83E493F9894D754E0090E000C005C004C00308
:20162100C002120EFED002D003D004D0058C828D83E4932400FCE434E0FD8C178D188A827D
:201641008B83E493F8A3E493F9884B894C88828983E493F8884D754E00851782851883C036
:2016610005C004C003C002120EFED002D003D004D0058A828B83E493F8A3E493F988828980
:2016810083E4932CFCE43DFD74022AFAE43BFB8A828B83E493F8A3E493F948709D90E002F2
:2016A100E0FAA3E0FB4A6003021797ECC39400FCED94E0FD90E002ECF0EDA3F002179774E5
:2016C10003B5150474018001E4FD601EE516701A754B46754C1B901B46E493FC8C4D754E7C
:2016E1000090E000120EFE021797ED700302178DAC167D00EC24FFFAED34FFFB74072EF5A4
:2017010082E43FF583E493F87900C3EA98EB648089F063F08095F0507374082EF582E43FD7
:20172100F583E493FEA3E493FF1CBCFF011DEC2CFCED33FDEC2EF582ED3FF583E493FEA32F
:20174100E493FF90E0007402F090E00104F074012401FCE434E0FD8E828F83E493FB603622
:201761000EBE00010F8C828D83EBF074012CFAE43DFB8A828B83E4F0042AFCE43BFD90E038
:2017810000E0FB0B0B90E000EBF080CB90E6A07401F07481F0227E007FE090E6B57401F0D2
:2017A10090E6B3EFF090E6B4EEF090E6A07480F022AE82AF83A3A3A3A3A3E493F555A3E423
:2017C10093F55674042EFEE43FFF754D008E828F83E493FAC3E54D9A400122E54D75F00284
:2017E100A42555F582E55635F0F583E493F54EA3E493F54F7409254EF550E4354FF5517907
:2018010000854E82854F83A3A3A3A3A3E493FAB5100280030218C4A850AA5188828A83E465
:2018210093FBA3E493FD8B828D83A3E493F5527404B5523588828A83E493F553A3E493F5EB
:2018410054855382855483A3A3E493B54B11855382855483A3A3A3E493FBB54C0280047B9C
:201861000080027B018B0180427405B5523DE9603A88828A83E493FBA3E493FD8B828D831E
:20188100A3A3E493FD740F5DFC530580E423CDC423541F6DCD541FCD6DCD30E40244E0FBC2
:2018A10090E683ED4CF0E043E020F0740228F8E43AFA88828A83E493FBA3E493FD4B6003F6
:0818C10002181C054D0217CEB0
:041B46000403090487
:0118C90032EC
:0118CA0032EB
:0118CB0032EA
:0118CC0032E9
:0118CD0032E8
:0118CE0032E7
:0118CF0032E6
:0118D00032E5
:0118D10032E4
:1918D200AF82E519700F8F4B85194C901A4A1217B2758201227582002289
:0418EB0075820022E0
:0118EF0032C6
:0C18F000858215851A16901A4A021549C7
:0118FC0032B9
:0A18FD0090E6A07480F075820122CD
:1A19070090E740E4F090E6B504F090E68AE4F090E68B04F090E6A003F02228
:1C19210090E740E510F090E6B57401F090E68AE4F090E68B04F090E6A003F0228A
:20193D00E583700BE58224FA400122B4001122E5826003D5E0FD0075E0FED583F674F9D579
:20195D00E0FD22C007C006C001C000AE82AF83EE2EF8EF33F9EE28FEEF39FF90E600E0F843
:20197D00794C20E416C3EF13CE13CEFF795AE820E309C3EF13CE13CEFF7963E58124FAF866
:20199D00E926C313C313F9C3EE99F582EF9400F583D000D001D006D00750012202193D742D
:2019BD0011C0E0121960158122C007C006AE82AF837411C0E0EE4F600D1EBEFF011F9003CA
:0D19DD00E812196080EF1581D006D00722B6
:1E19EA00E582FF6003BF01128F10754BFF754CFF901A4A1217B2758201227582002224
:00000001FF
