:060000000200690208A8DD
:03000B000208AE3A
:030013000208AA36
:03001B000208B028
:03002300020A1DB1
:03002B000208B216
:0300330002090DB2
:03003B000212A40A
:03004300020100B7
:03004B000208A9FF
:03005300020100A7
:03005B000208ABED
:030063000208ACE4
:0300C200020066D3
:030066000203E3AF
:2001BE00AE82AF83E0FDE4BD210104FC60328E828F83A3E0FBBB22288E828F83A3A3A3A33A
:2001DE00E0FAA3E0FB4A701874062EF582E43FF583E0FAA3E0FB4A700790E6A07480F022E8
:2001FE00BDA1648E828F83A3E0FDBD215A8E828F83A3A3A3A3E0FBA3E0FD4B704A74062E8F
:20021E00F582E43FF583E0FBA3E0FDBB0739BD003690E740E4F074C2A3F07401A3F0E4A382
:20023E00F090E744F090E745F090E7467408F090E6B57401F090E68AE4F090E68B7407F060
:20025E0090E6A07480F022EC60448E828F83A3E0FDBD203A8E828F83A3A3A3A3E0FCA3E00E
:20027E00FD4C702A74062EF582E43FF583E0FEA3E0FFBE0719BF001690E6B57401F090E6AA
:20029E008AE4F090E68BF090E6A07480F02290E6A07401F07481F022AD82AE83AFF07B00D9
:2002BE007C008D828E838FF01212DDFA700302035C8B70ECC454F0C570C4C5706570C5700F
:2002DE0054F0C5706570F571BA3000401BEA24C640168A017A00E924D0F9EA34FFFAE945BD
:2002FE0070FBEA4571FC804E8D828E838FF01212DDFABA6100401BEA249940168A007900FB
:20031E0074A928F874FF39F9E84570FBE94571FC8024BA4100401BEA24B940168A017A008E
:20033E0074C929F974FF3AFAE94570FBEA4571FC8004900000220DBD00010E0202C08B8284
:20035E008C8322AF8275B3FF75B5FF75B40775A0008F9075B00075A00175A00075B300757C
:20037E00B50075A002AFB07E00AC907D00EC4EF582ED4FF5838EA022AF8275B3FF75B5FFC7
:20039E0075B40775A0008F9075B00075A00175A0008571B085709075A00475A00675A00017
:2003BE0075B30075B50022C0E0C082C0837521015391EF90E65B7401F090E659C4F0D08310
:2003DE00D082D0E03290E6007410F090E60B7403F061F190E6047480F090E61174B0F0901E
:2003FE00E610E053E07FF090E61274A2F090E6A3E4F090E61474E2F090E6A5E4F090E613A4
:20041E00E053E07FF090E615E053E07FF090E6587410F090E65AC4F0813890E6047482F050
:20043E00814090E6497482F0814890E6497482F0815090E6047486F0815890E604E4F075F9
:20045E0082011212F97E007F008F36EE4F70FC90E6A3E020E2F590E690E0FB7C0090E6911F
:20047E00E07D004204ED42038C228B237570007571F085227285237390E00012087D90E6C1
:20049E0091E4F0F524F5257C01F537F538C3E5379522E5389523400302083085378274E056
:2004BE002538F583E0FAE5362426F8A602BA0A028008BA0D02800302081BE5362426F876D8
:2004DE0000E5367036748DC0E0741BC0E07480C0E07400C0E074E0C0E0E4C0E01209C5E588
:2004FE008124FAF58190E00075F0001212C4AA82AD838A248D257C000207D2AD26BD500217
:20051E008008BD700280030206AE85273985283A7A00743DB53A6190002975F0401202B65E
:20053E0085823F858340AA3F7461B5390280057441B539048A80803E7462B53902800574AE
:20055E0042B539048A90802E7463B5390280057443B539048AA0801E7464B5390280057403
:20057E0044B539048AB0800E7465B5390280057445B539028AB17C007423B53A6190002911
:20059E0075F0401202B685823F858340AA3F7461B5390280057441B539048AB2803E746296
:2005BE00B5390280057442B539048AB3802E7463B5390280057443B539048AB4801E74646C
:2005DE00B5390280057444B539048AB5800E7465B5390280057445B539028AB67C00743FAB
:2005FE00B53A547C007461B5390280057441B53904AA8080427462B5390280057442B53952
:20061E0004AA9080327463B5390280057443B53904AAA080227464B5390280057444B539F8
:20063E0004AAB080127465B5390280057445B53904AAB180027C01EC60030207D28A3F75F1
:20065E004000853A41754200AA397B00C004C03FC040C041C042C002C00374A8C0E0741B91
:20067E00C0E07480C0E07400C0E074E0C0E0E4C0E01209C5E58124F4F58190E00075F000F3
:20069E001212C4AA82AB83D0048A248B250207D2BD52028003BD725890002775F040120262
:2006BE00B6AA82C00212036185823B85833CD0027B00C03BC03CC002C00374BDC0E0741B53
:2006DE00C0E07480C0E07400C0E074E0C0E0E4C0E01209C5E58124F6F58190E00075F00091
:2006FE001212C4AA82AB838A248B257C000207D2BD57028003BD776AE52724D0FD900028F9
:20071E0075F040C0051202B6AA82AB83D0058A3D8B3E853D70853E718D82C005120396D013
:20073E00058D037D00C03DC03EC003C00574D3C0E0741BC0E07480C0E07400C0E074E0C034
:20075E00E0E4C0E01209C5E58124F6F58190E00075F0001212C4AB82AD838B248D257C004A
:20077E0080527570E975711B75728090002675F040C0041208B3E5828583F0D00445F0708F
:20079E003374EEC0E0741BC0E07480C0E07400C0E074E0C0E0E4C0E01209C5E58124FAF55E
:2007BE008190E00075F0001212C4AB82AD838B248D257C00EC6041C0047426C0E07400C0E4
:2007DE00E07440C0E074FCC0E0741BC0E07480C0E07400C0E074E0C0E0E4C0E01209C5E5A3
:2007FE008124F7F58190E00075F0001212C4AB82AD83D0048B248D25753600800A05367496
:20081E0010B536037536000537E4B5370205380204ABE52445257006852224852325E4FEB2
:20083E00FFE52445257003020469E52170030204697570007571E085247285257390F800F3
:1F085E00C007C00612087DD006D00790E698E525F0017190E699E524F075210002046923
:201B1B001201000202000040B4041486000001020001090400000102020000070581030853
:201B3B00000A052400200104240200052406000109040100020A00000007050202000200B0
:201B5B00070586020002000902000002010080322D1B3D1B421B461B361B4B1B541B5B1B1A
:201B7B000000621B141C241C1B1B0000017D1B027F1B5341473130323149206465627567E3
:201B9B0020696E746572666163650A0D000D0A506F72742025632025632030582558200AE7
:201BBB000D000D0A526420416464723A2025642030582558200A0D000D0A5772204164644D
:201BDB00723A2025642030582558200A0D0068656C70000D0A53686F772068656C700A0DF8
:201BFB00000D0A556E6B6E6F776E20636F6D6D616E643A2025730A0D0064724064726C65FE
:201C1B006374726F2E636F6D005341473130323149205465737420696E746572666163650B
:011C3B0000A8
:20087D00AA82AB83AC70AD71AE72AF73EE60010FEF601775AF078A9B8B9A8C9E8D9D90E682
:0B089D007CE090E67BF0DEF6DFF4224A
:06009800E478FFF6D8FD3C
:0108A800321D
:0108A900321C
:0108AA00321B
:200076007900E94400601B7A00901C4B780075923EE493F2A308B800020592D9F4DAF275A8
:0200960092FFD7
:0108AB00321A
:0108AC003219
:030100000213A245
:030104000212A53F
:03010800020913D6
:03010C00020A1BC9
:030110000212DCFC
:030114000219C904
:03011800020910C9
:03011C000201B825
:03012000020A13BD
:030124000219C7F6
:03012800020A14B4
:03012C000219C8ED
:030130000219F4BD
:030134000208AD11
:030138000208AF0B
:03013C0002090CA9
:030140000203C5F2
:030144000201B8FD
:030148000219C1D8
:03014C000219C2D3
:030150000219C3CE
:030154000219C4C9
:030158000219C5C4
:03015C000219C6BF
:030160000212A6E2
:030164000201B8DD
:030168000201B8D9
:03016C000201B8D5
:03017000020A126E
:03017400020A1567
:03017800020A1761
:03017C00020A195B
:03018000020A165A
:03018400020A1854
:03018800020A1A4E
:03018C00020A1C48
:0301900002090E53
:030194000209114C
:0301980002091445
:03019C000209163F
:0301A00002090F42
:0301A4000209123B
:0301A80002091534
:0301AC000209172E
:0301B0000208B191
:0301B4000219E746
:0101B8003214
:0108AD003218
:0108AE003217
:0108AF003216
:0108B0003215
:0108B1003214
:0108B2003213
:2008B300AD82AE83AFF0AA70AB71AC728D828E838FF01212DDF879008A828B838CF0121207
:2008D300DDF573C002C003C004AB737C00E8C39BF8E99CF988748975D004D003D002E8497D
:1908F3007010E573600C0DBD00010E0ABA00BD0B80BA85748285758322EF
:01090C0032B8
:01090D0032B7
:01090E0032B6
:01090F0032B5
:20009E007800E84400600A790075923EE4F309D8FC7800E84400600C7900903E00E4F0A3F4
:0400BE00D8FCD9FA97
:0109100032B4
:0109110032B3
:0109120032B2
:0109130032B1
:0109140032B0
:0109150032AF
:0109160032AE
:0109170032AD
:20091800C00F85810FC082058105810581E50F24FBF8A90F0909E6F70809E6F70809E6F779
:20093800A80F080886820886830886F01212DDFAA31212DDFBA31212DDFF74012AFCE43B4A
:20095800FD8F06A80F080886820886830886F0EC1219F5A3ED1219F5A3EE1219F58A828B8B
:20097800838FF0A80F08E61219F5850F81D00F2285820C85830D85F00E75500C75510075CB
:200998005240850853850954850A55850B56900918120ABCAE82AF83AB0CAC0DAD0E8B82FE
:2009B8008C838DF0E41219F58E828F8322C00FE581F50F24F8FF8F56E50F24FBFF8F5075AC
:2009D8005100755240E50F24F8F88653088654088655900918120ABCAE82AF83E50F24FB03
:1A09F800F886030886040886058B828C838DF0E41219F58E828F83D00F227F
:010A120032B1
:010A130032B0
:010A140032AF
:010A150032AE
:010A160032AD
:010A170032AC
:010A180032AB
:010A190032AA
:010A1A0032A9
:010A1B0032A8
:010A1C0032A7
:010A1D0032A6
:200A1E00AF82C046C047C048120A2B8007C044C0458F8222158115811581054EE4B54E026A
:200A3E00054F22AF8274302FFF24C6500B74072FFFE54360034307208F82020A1EE582FF9B
:200A5E00C4540FF582C007120A41D007740F5FF582020A41858270AB49AC4AAD4BAE4CAA3C
:200A7E004D7572208A07EF2FF571EE2354014571FAEB2BFBEC33FCED33FDEE33FEC3EA952F
:200A9E00704008EAC39570FA430301E57214FF8F7270D18B498C4A8D4B8E4C8A4D22858285
:200ABE0044858345855046855147855248E4F54EF54FAD53AE54AF558D828E838FF01212FC
:200ADE00DDFC74012DF553E43EF5548F55ECFF700302129DBF250280030212957E007D00CA
:200AFE008E578E587A007B008E597C008E5AE4F562F563755BFF755CFF855364855465859C
:200B1E0055668564828565838566F01212DDF567A3858264858365856453856554856655B7
:200B3E007425B56708856782120A1E808574D025674003020BFEE56724C65003020BFE7407
:200B5E00FFB55B55B55C5285627085637190000AC006C005C004C003C0021212A785826858
:200B7E00858369D002D003D004D005D00685676A756B00E56A2568F56AE56B3569F56BE51E
:200B9E006A24D0F562E56B34FFF563E56245636003020B207D01020B20855B70855C71904B
:200BBE00000AC006C005C004C003C0021212A785826A85836BD002D003D004D005D00685E1
:200BDE006768756900E568256AF56AE569356BF56BE56A24D0F55BE56B34FFF55C020B202D
:200BFE00742EB5671574FFB55B05B55C028003020B20E4F55BF55C020B20749F2567500E0A
:200C1E00E567248540085367DF75430180037543007420B56703020CCA742BB56703020C95
:200C3E00C4742DB5670280797442B56703020CD07443B56703020CDB7444B56703020F2898
:200C5E007446B56703020F3E7448B56703020B207449B56703020F28744AB56703020B2027
:200C7E00744CB567028050744FB56703020F2F7450B56703020E737453B56702807674547D
:200C9E00B56703020B207455B56703020F347458B56703020F39745AB56703020B20020F5D
:200CBE00427E01020B20755701020B20755801020B207B01020B20755901020B20EB600A39
:200CDE00E55614F98956876A800DE55624FEF568856856A968876A856A82C006C005C00492
:200CFE00C003C002120A1ED002D003D004D005D006020F64E55624FDF56A856A56A96A87E4
:200D1E0064098765098766191985644985654A85664B8564828565838566F0C006C005C09A
:200D3E0004C003C0021212C485826A85836BD002D003D004D005D00674FFB55B09B55C0679
:200D5E00856A5B856B5CEE704FC3E56A9562E56B95635044E562C3956AF568E563956BF5AA
:200D7E0069856864856965156874FFB568021569E5644565601C758220C006C005C004C026
:200D9E0003C002120A1ED002D003D004D005D00680CF856862856963855B68855C698549C3
:200DBE0082854A83854BF01212DDF56485645F604FC3E4956874808569F063F08095F05012
:200DDE003F156874FFB568021569855F82C006C005C004C003C002120A1ED002D003D0043C
:200DFE00D005D006854964854A65854B660564E4B56402056585644985654A85664B809E02
:200E1E00EE7003020F64C3E56A9562E56B95634003020F64E562C3956AF56AE563956BF530
:200E3E006B856A68856B69156A74FFB56A02156BE56845697003020F5E758220C006C00567
:200E5E00C004C003C002120A1ED002D003D004D005D00680CCE55624FDF568856856A96874
:200E7E008764098765098766191985644985654A85664B854B607480256050057568438012
:200E9E001974A025605005756850800E74C0256050057568498003756858856882C006C091
:200EBE0005C004C003C002120A1E75823A120A1E758230120A1E758278120A1ED002D00372
:200EDE00D004D005D0067449B5680280217450B56802801A854A82C006C005C004C003C058
:200EFE0002120A5BD002D003D004D005D006854982C006C005C004C003C002120A5BD002CA
:200F1E00D003D004D005D006803C7A01755A0A8035755A088030755A0A802B755A1080260C
:200F3E007C018022856782C006C005C004C003C002120A1ED002D003D004D005D00680064E
:200F5E00856A62856B63EC6068E55624FCFC8C568C01876C09876D09876E09876F1919191D
:200F7E00856C49856D4A856E4B856F4C75493C754A1C754B8085496C854A6D854B6E740121
:200F9E00256CF564E4356DF565856E6685644985654A85664B856C82856D83856EF0121285
:200FBE00DDFC8C6C7003020AD0856C82120A1E80C4E55A7003020AD0EB603FE55614F98919
:200FDE005687048C6C756D00756E00756F00856C49856D4A856E4B856F4CEA60030210819D
:200FFE0085496C756D00756E00756F00856C49856D4A856E4B856F4C8069E5596025E55615
:20101E0024FCFC8C568C01876C09876D09876E09876F191919856C49856D4A856E4B856F47
:20103E004C8040E55624FEFC8C568C018703098704198B6CECF56D3395E0F56EF56F856CE2
:20105E0049856D4A856E4B856F4CEA701685496C854A6DF56EF56F856C49856D4A856E4B0E
:20107E00856F4CEA602AE54C30E723C3E49549F56CE4954AF56DE4954BF56EE4954CF56FD8
:20109E00856C49856D4A856E4B856F4C80027A007C017981E4F56CF56D754D00855A82C041
:2010BE0006C005C004C002C001120A72D001D002D004D005D006EC700DE54DC4F56AE7FBB0
:2010DE00456AF7198002A74D056CE4B56C02056DECB40100E433FCE549454A454B454C70D1
:2010FE00B88961856C5D856D5EE56245637005756201F563ED7043EE704085626C85636D18
:20111E00AB5D0B8B6A756B00C3E56A956CE56B956D5021758220C006C005C004C002120AAF
:20113E001ED002D004D005D006156C74FFB56C02156D80CC856C62856D63EA601D75822D0A
:20115E00C006C005C004120A1ED004D005D006156274FFB5620215638046E55D455E6040A3
:20117E00E557601D75822BC006C005C004120A1ED004D005D006156274FFB5620215638073
:20119E001FE558601B758220C006C005C004120A1ED004D005D006156274FFB562021563C0
:2011BE00EE703C85626C85636DAA6CAB6D156C74FFB56C02156DC3E55D9AE55E9B5041ED0D
:2011DE0060067A307B0080047A207B008A82C006C005C004120A1ED004D005D00680CAC3AC
:2011FE00E55D9562E55E9563500FE562C3955DF56AE563955EF56B800DE4F56AF56B800652
:20121E00856C6A856D6BA961855D6C855E6DAA6CAD6D156C74FFB56C02156DEA4D602EECD6
:20123E00B40100E433FC700A09E7C4540FFD8D4D80078705740F5DF54D854D82C006C0044D
:20125E00C001120A41D001D004D00680C1EE7003020AD0AD6AAE6B8D038E041DBDFF011E0F
:20127E00EB4C7003020AD0758220C006C005120A1ED005D00680E08F82120A1E020AD08537
:06129E004E82854F832201
:0B1C3C003C4E4F20464C4F41543E00F0
:0112A4003217
:0112A5003216
:0112A6003215
:1D12A700E5828570F0A4C582C0F08571F0A4D0F025F0C5838570F0A42583F58322D1
:1812C400AA82AB831212DD6003A380F8C3E5829AF582E5839BF5832261
:0112DC0032DF
:0D0069007581811219E3E5826003020066D3
:1C12DD0020F71430F6148883A88220F507E6A88375830022E280F7E49322E02220
:2012F900AF82751100751200D2E890E668E043E008F090E65CE043E001F090E65D7401F006
:20131900D2AF90E680E020E10890E680E043E002F0EF600E90E680E043E008F090000A126F
:201339001AD990E680E053E0F7F022AF82BF00028037BF01028036BF02028039BF040280AD
:2013590038BF06028037BF08028036BF80028019BF8102801CBF8202801BBF8402801ABF0B
:2013790086028019BF881E801890E6A02290E6A12290E6A22290E6A32290E6A42290E6A5F9
:201399002290E6A62290000022C020C0E0C0F0C082C083C007C006C005C004C003C002C012
:2013B90001C000C0D075D000C08675860090E6B8E0FFE4BF800104FE601990E6B9E0FDBDC8
:2013D900061190E6BAE0FCA3E0F5828C1C1219E8021619EF702A90E6B9E0FDBD092290E6F8
:2013F900BAE0F582121AFDE582600990E6A07480F002161990E6A07401F07481F00216190E
:20141900EE600E90E6B9E0FDBD0806121A340216198F05BD013190E6B9E0FDBD0B2990E6F9
:20143900BCE0FD90E6BAE0F51B8D821219CAE582600990E6A07480F002161990E6A0740150
:20145900F07481F0021619E4BF810104FD601490E6B9E0FCBC0A0C90E6BCE0F582121A1A27
:20147900021619EF703690E6B9E0FCBC032E90E6BAE0FBA3E0FCBB010FBC000C7511019061
:20149900E6A07480F0021619BB0205BC0002800302161990E6A07480F0021619EE60329029
:2014B900E6B9E0702CAE10E51125E0FC420690E740EEF090E741E4F090E6B504F090E68ABB
:2014D900E4F090E68B7402F090E6A07480F0021619ED602890E6B9E0702290E740E4F0905C
:2014F900E741F090E6B504F090E68AE4F090E68B7402F090E6A07480F0021619BF020280F3
:20151900030215C490E6B9E0FEBE03028008BE010280030215C490E6BAE0FDA3E0FE4D6022
:201539000302161990E6BCE0F582121344AD82AE83ED4E700302161990E6B9E0FCBC03184B
:201559008D828E83E0FC4304018D828E83ECF090E6A07480F002161990E6BCE0F582C006B8
:20157900C005121A10E582D005D00670030216198D828E83E0FC5304FE8D828E83ECF090BE
:20159900E6BCE0FDA3E08D0453040F530580E4C423CDC423541F6DCD541FCD6DCDFE90E647
:2015B90083ED4CF0E043E020F08055BF824C90E6B9E0704690E6BCE0F582121344AE82AF5B
:2015D90083EE4F603B8E828F83E0FE5306017F00EE4FB40100B3E433FF90E740F090E741A4
:2015F900E4F090E6B504F090E68AE4F090E68B7402F090E6A07480F0800690E6B81201BE25
:201619005391EF90E65D7401F0D086D0D0D000D001D002D003D004D005D006D007D083D0F1
:2016390082D0F0D0E0D02032AE82AF837401B51728E51870248E828F83E493FCA3E493FD75
:201659008C708D718C828D83E493FC8C7275730090E00012087D02188F7406B5173BE518D2
:2016790070378E828F83A3A3E493FCA3E493FD4C700A90E6A07401F07481F0228C028D0352
:201699008A708B718C828D83E493FC8C7275730090E00012087D02188F7402B5170280034D
:2016B9000217B88E828F83A3A3A3A3E493FDC3E5189D40030217B88E828F83A3A3A3A3A35C
:2016D900E493FCA3E493FDE51875F002A42CF582ED35F0F583E493FCA3E493FD74092CFA05
:2016F900E43DFB8C008D01887089718C828D83E493F9897275730090E000C005C004C0037C
:20171900C00212087DD002D003D004D0058C828D83E4932400FCE434E0FD8C198D1A8A8207
:201739008B83E493F8A3E493F98870897188828983E493F88872757300851982851A83C0A5
:2017590005C004C003C00212087DD002D003D004D0058A828B83E493F8A3E493F98882890E
:2017790083E4932CFCE43DFD74022AFAE43BFB8A828B83E493F8A3E493F948709D90E002F9
:20179900E0FAA3E0FB4A600302188FECC39400FCED94E0FD90E002ECF0EDA3F002188F74FA
:2017B90003B5170474018001E4FD601EE518701A75704775711C901C47E493FC8C727573E7
:2017D9000090E00012087D02188FED7003021885AC187D00EC24FFFAED34FFFB74072EF53E
:2017F90082E43FF583E493F87900C3EA98EB648089F063F08095F0507374082EF582E43FDF
:20181900F583E493FEA3E493FF1CBCFF011DEC2CFCED33FDEC2EF582ED3FF583E493FEA336
:20183900E493FF90E0007402F090E00104F074012401FCE434E0FD8E828F83E493FB603629
:201859000EBE00010F8C828D83EBF074012CFAE43DFB8A828B83E4F0042AFCE43BFD90E03F
:2018790000E0FB0B0B90E000EBF080CB90E6A07401F07481F0227E007FE090E6B57401F0D9
:2018990090E6B3EFF090E6B4EEF090E6A07480F022AE82AF83A3A3A3A3A3E493F57AA3E405
:2018B90093F57B74042EFEE43FFF7572008E828F83E493FAC3E5729A400122E57275F002F7
:2018D900A4257AF582E57B35F0F583E493F573A3E493F57474092573F575E43574F57679E6
:2018F90000857382857483A3A3A3A3A3E493FAB5120280030219BCA875AA7688828A83E4DE
:2019190093FBA3E493FD8B828D83A3E493F5777404B5773588828A83E493F578A3E493F583
:2019390079857882857983A3A3E493B57011857882857983A3A3A3E493FBB5710280047BA0
:201959000080027B018B0180427405B5773DE9603A88828A83E493FBA3E493FD8B828D8300
:20197900A3A3E493FD740F5DFC530580E423CDC423541F6DCD541FCD6DCD30E40244E0FBC9
:2019990090E683ED4CF0E043E020F0740228F8E43AFA88828A83E493FBA3E493FD4B6003FD
:0819B90002191405720218C6A0
:041C47000403090485
:0119C10032F3
:0119C20032F2
:0119C30032F1
:0119C40032F0
:0119C50032EF
:0119C60032EE
:0119C70032ED
:0119C80032EC
:0119C90032EB
:1919CA00AF82E51B700F8F70851B71901B831218AA75820122758200220F
:0419E30075820022E7
:0119E70032CD
:0C19E800858217851C18901B8302164195
:0119F40032C0
:1B19F50020F71130F6138883A88220F509F6A8837583002280FEF280F5F022F1
:0A1A100090E6A07480F075820122B8
:1A1A1A0090E740E4F090E6B504F090E68AE4F090E68B04F090E6A003F02214
:1C1A340090E740E512F090E6B57401F090E68AE4F090E68B04F090E6A003F02274
:201A5000E583700BE58224FA400122B4001122E5826003D5E0FD0075E0FED583F674F9D565
:201A7000E0FD22C007C006C001C000AE82AF83EE2EF8EF33F9EE28FEEF39FF90E600E0F82F
:201A9000794C20E416C3EF13CE13CEFF795AE820E309C3EF13CE13CEFF7963E58124FAF852
:201AB000E926C313C313F9C3EE99F582EF9400F583D000D001D006D007500122021A507405
:201AD00011C0E0121A73158122C007C006AE82AF837411C0E0EE4F600D1EBEFF011F9003A2
:0D1AF000E8121A7380EF1581D006D007228E
:1E1AFD00E582FF6003BF01128F127570FF7571FF901B831218AA758201227582002291
:00000001FF
