:06000000020069020898ED
:03000B0002089E4A
:0300130002089A46
:03001B000208A038
:03002300020A0EC0
:03002B000208A226
:030033000208FDC3
:03003B000211703F
:03004300020100B7
:03004B000208990F
:03005300020100A7
:03005B0002089BFD
:0300630002089CF4
:0300C200020066D3
:030066000203E3AF
:2001BE00AE82AF83E0FDE4BD210104FC60328E828F83A3E0FBBB22288E828F83A3A3A3A33A
:2001DE00E0FAA3E0FB4A701874062EF582E43FF583E0FAA3E0FB4A700790E6A07480F022E8
:2001FE00BDA1648E828F83A3E0FDBD215A8E828F83A3A3A3A3E0FBA3E0FD4B704A74062E8F
:20021E00F582E43FF583E0FBA3E0FDBB0739BD003690E740E4F074C2A3F07401A3F0E4A382
:20023E00F090E744F090E745F090E7467408F090E6B57401F090E68AE4F090E68B7407F060
:20025E0090E6A07480F022EC60448E828F83A3E0FDBD203A8E828F83A3A3A3A3E0FCA3E00E
:20027E00FD4C702A74062EF582E43FF583E0FEA3E0FFBE0719BF001690E6B57401F090E6AA
:20029E008AE4F090E68BF090E6A07480F02290E6A07401F07481F022AD82AE83AFF07B00D9
:2002BE007C008D828E838FF012118CFA700302035C8B6BECC454F0C56BC4C56B656BC56B7A
:2002DE0054F0C56B656BF56CBA3000401BEA24C640168A017A00E924D0F9EA34FFFAE945CC
:2002FE006BFBEA456CFC804E8D828E838FF012118CFABA6100401BEA249940168A00790057
:20031E0074A928F874FF39F9E8456BFBE9456CFC8024BA4100401BEA24B940168A017A0098
:20033E0074C929F974FF3AFAE9456BFBEA456CFC8004900000220DBD00010E0202C08B828E
:20035E008C8322AF8275B3FF75B5FF75B40775A0008F9075B00075A00175A00075B300757C
:20037E00B50075A002AFB07E00AC907D00EC4EF582ED4FF5838EA022AF8275B3FF75B5FFC7
:20039E0075B40775A0008F9075B00075A00175A000856CB0856B9075A00475A00675A00021
:2003BE0075B30075B50022C0E0C082C0837521015391EF90E65B7401F090E659C4F0D08310
:2003DE00D082D0E03290E6007410F090E60B7403F061F190E6047480F090E61174B0F0901E
:2003FE00E610E053E07FF090E61274A2F090E6A3E4F090E61474E2F090E6A5E4F090E613A4
:20041E00E053E07FF090E615E053E07FF090E6587410F090E65AC4F0813890E6047482F050
:20043E00814090E6497482F0814890E6497482F0815090E6047486F0815890E604E4F075F9
:20045E0082011211A87E007F008F36EE4F70FC90E6A3E020E2F590E690E0FB7C0090E69171
:20047E00E07D004CF522ED4BF523756B00756CF085226D85236E90E00012086D90E691E491
:20049E00F0F524F5257D01F537F538C3E5379522E5389523400302082085378274E025387D
:2004BE00F583E0FAE5362426F8A602BA0A028008BA0D02800302080BE5362426F87600E560
:2004DE003670347461C0E0741AC0E07480C0E07400C0E074E0C0E0E4C0E01209B5E5812407
:2004FE00FAF58190E00075F0001211738582248583257D000207C4AA26BA50028008BA70D3
:20051E000280030206A885273985283A7B00743DB53A6190002975F0401202B685823F854D
:20053E008340AB3F7461B5390280057441B539048B80803E7462B5390280057442B5390443
:20055E008B90802E7463B5390280057443B539048BA0801E7464B5390280057444B53904FF
:20057E008BB0800E7465B5390280057445B539028BB17D007423B53A6190002975F040128D
:20059E0002B685823F858340AB3F7461B5390280057441B539048BB2803E7462B5390280DB
:2005BE00057442B539048BB3802E7463B5390280057443B539048BB4801E7464B53902806A
:2005DE00057444B539048BB5800E7465B5390280057445B539028BB67D00743FB53A547D58
:2005FE00007461B5390280057441B53904AB8080427462B5390280057442B53904AB908051
:20061E00327463B5390280057443B53904ABA080227464B5390280057444B53904ABB080D6
:20063E00127465B5390280057445B53904ABB180027D01ED60030207C48B3F754000853ADA
:20065E0041754200AB397C00C005C03FC040C041C042C003C004747CC0E0741AC0E0748024
:20067E00C0E07400C0E074E0C0E0E4C0E01209B5E58124F4F58190E00075F000121173857C
:20069E008224858325D0050207C4BA52028003BA725690002775F0401202B6AB82C003128C
:2006BE00036185823B85833CD0037C00C03BC03CC003C0047491C0E0741AC0E07480C0E0FE
:2006DE007400C0E074E0C0E0E4C0E01209B5E58124F6F58190E00075F00012117385822414
:2006FE008583257D000207C4BA57028003BA7766E52724D0FC90002875F040C0041202B651
:20071E0085823D85833ED004853D6B853E6C8C82C004120396D0048C037C00C03DC03EC0EA
:20073E0003C00474A7C0E0741AC0E07480C0E07400C0E074E0C0E0E4C0E01209B5E5812471
:20075E00F6F58190E00075F0001211738582248583257D008050756BBD756C1A756D809075
:20077E00002675F040C0051208A3E5828583F0D00545F0703174C2C0E0741AC0E07480C04C
:20079E00E07400C0E074E0C0E0E4C0E01209B5E58124FAF58190E00075F000121173858293
:2007BE00248583257D00ED603FC0057426C0E07400C0E07440C0E074D0C0E0741AC0E074D4
:2007DE0080C0E07400C0E074E0C0E0E4C0E01209B5E58124F7F58190E00075F0001211731D
:2007FE00858224858325D005753600800A05367410B536037536000537E4B53702053802D4
:20081E0004A9E52445257006852224852325E4FEFFE52445257003020469E52170030204D7
:20083E0069756B00756CE085246D85256E90F800C007C00612086DD006D00790E698E52501
:0F085E00F0016190E699E524F07521000204692C
:2019EF001201000202000040B4041486000001020001090400000102020000070581030881
:201A0F00000A052400200104240200052406000109040100020A00000007050202000200DD
:201A2F0007058602000200090200000201008032011A111A161A1A1A0A1A1F1A281A2F1AAF
:201A4F000000361AE81AF81AEF19000001511A02531A534147313032314920646562756721
:201A6F0020696E746572666163650A0D000D0A506F72742025632025632030582558200A14
:201A8F000D000D0A526420416464723A2025642030582558200A0D000D0A5772204164647A
:201AAF00723A2025642030582558200A0D0068656C70000D0A53686F772068656C700A0D25
:201ACF00000D0A556E6B6E6F776E20636F6D6D616E643A2025730A0D0064724064726C652B
:201AEF006374726F2E636F6D005341473130323149205465737420696E7465726661636539
:011B0F0000D5
:20086D00AA82AB83AC6BAD6CAE6DAF6EEE60010FEF601775AF078A9B8B9A8C9E8D9D90E6A6
:0B088D007CE090E67BF0DEF6DFF4225A
:06009800E478FFF6D8FD3C
:01089800322D
:01089900322C
:01089A00322B
:200076007900E94400601B7A00901B1F780075923EE493F2A308B800020592D9F4DAF275D5
:0200960092FFD7
:01089B00322A
:01089C003229
:0301000002125197
:0301040002117174
:03010800020903E6
:03010C00020A0CD8
:0301100002118B4E
:0301140002189D31
:03011800020900D9
:03011C000201B825
:03012000020A04CC
:0301240002189B23
:03012800020A05C3
:03012C0002189C1A
:030130000218C8EA
:0301340002089D21
:0301380002089F1B
:03013C000208FCBA
:030140000203C5F2
:030144000201B8FD
:0301480002189505
:03014C0002189600
:03015000021897FB
:03015400021898F6
:03015800021899F1
:03015C0002189AEC
:0301600002117217
:030164000201B8DD
:030168000201B8D9
:03016C000201B8D5
:03017000020A037D
:03017400020A0676
:03017800020A0870
:03017C00020A0A6A
:03018000020A0769
:03018400020A0963
:03018800020A0B5D
:03018C00020A0D57
:030190000208FE64
:030194000209015C
:0301980002090455
:03019C000209064F
:0301A0000208FF53
:0301A4000209024B
:0301A80002090544
:0301AC000209073E
:0301B0000208A1A1
:0301B4000218BB73
:0101B8003214
:01089D003228
:01089E003227
:01089F003226
:0108A0003225
:0108A1003224
:0108A2003223
:2008A300AD82AE83AFF0AA6BAB6CAC6D8D828E838FF012118CF879008A828B838CF0121179
:2008C3008CF56EC002C003C004AB6E7C00E8C39BF8E99CF9886F8970D004D003D002E849F2
:1908E3007010E56E600C0DBD00010E0ABA00BD0B80BA856F82857083220E
:0108FC0032C9
:0108FD0032C8
:0108FE0032C7
:0108FF0032C6
:20009E007800E84400600A790075923EE4F309D8FC7800E84400600C7900903E00E4F0A3F4
:0400BE00D8FCD9FA97
:0109000032C4
:0109010032C3
:0109020032C2
:0109030032C1
:0109040032C0
:0109050032BF
:0109060032BE
:0109070032BD
:20090800C00F85810FC082058105810581E50F24FBF8A90F0909E6F70809E6F70809E6F789
:20092800A80F080886820886830886F012118CFAA312118CFBA312118CFF74012AFCE43B50
:20094800FD8F06A80F080886820886830886F0EC1218C9A3ED1218C9A3EE1218C98A828B22
:20096800838FF0A80F08E61218C9850F81D00F2285820C85830D85F00E75500C7551007508
:200988005240850853850954850A55850B56900908120AB3AE82AF83AB0CAC0DAD0E8B8227
:2009A8008C838DF0E41218C98E828F8322C00F85810FE50F24F8FF8F56E50F24FBFF8F50BF
:2009C800755100755240E50F24F8F88653088654088655900908120AB3AE82AF83E50F24B2
:1B09E800FBF886030886040886058B828C838DF0E41218C98E828F83D00F22C0
:010A030032C0
:010A040032BF
:010A050032BE
:010A060032BD
:010A070032BC
:010A080032BB
:010A090032BA
:010A0A0032B9
:010A0B0032B8
:010A0C0032B7
:010A0D0032B6
:010A0E0032B5
:200A0F00AF82C046C047C048120A1C8007C044C0458F8222158115811581054EE4B54E0288
:200A2F00054F22AF8274302FFF24C6501174072FFFE54360098F057E004305208D078F828A
:200A4F00020A0FE582FFC4540FF582C007120A32D007740F5FF582020A3285826BAB49ACD3
:200A6F004AAD4BAE4CAA4D756D208A07EF2FF56CEE235401456CFAEB2BFBEC33FCED33FDC8
:200A8F00EE33FEC3EA956B4008EAC3956BFA430301E56D14FF8F6D70D18B498C4A8D4B8E93
:200AAF004C8A4D22858244858345855046855147855248E4F54EF54FAD53AE54AF558D8273
:200ACF008E838FF012118CFC74012DF553E43EF5548F55ECFF7003021169BF25028003024E
:200AEF0011617E007D008E578E587A007B008E597C008E5A8E60755BFF85536185546285B9
:200B0F0055638561828562838563F012118CF564A385826185836285615385625485635536
:200B2F007425B56408856482120A0F808B74D025645039E56424C6403374FFB55B1AE5606D
:200B4F00F56575F00AA4F565E564F566256524D0F56070AE7D0180AAE55B75F00AA4F566D4
:200B6F00E564F565256624D0F55B8096742EB5640A74FFB55B8C755B008087749F25645047
:200B8F000EE564248540085364DF75430180037543007420B56403020C3C742BB5640302BD
:200BAF000C36742DB5640280797442B56403020C427443B56403020C4D7444B56403020EFB
:200BCF005E7446B56403020E747448B56403020B117449B56403020E5E744AB56403020B2A
:200BEF0011744CB564028050744FB56403020E657450B56403020DA97453B56402807674F2
:200C0F0054B56403020B117455B56403020E6A7458B56403020E6F745AB56403020B110267
:200C2F000E787E01020B11755701020B11755801020B117B01020B11755901020B11EB60D9
:200C4F000AE55614F989568766800DE55624FEF565856556A9658766856682C006C005C030
:200C6F0004C003C002120A0FD002D003D004D005D006020E97E55624FDF566856656A966DF
:200C8F008761098762098763191985614985624A85634B8561828562838563F0C006C0057E
:200CAF00C004C003C002121173858261858362D002D003D004D005D00685616674FFB55B81
:200CCF000385665BEE7036C3E5669560502FE560C39566F5658565611565E561601C7582CB
:200CEF0020C006C005C004C003C002120A0FD002D003D004D005D00680DB856560855B65B8
:200D0F00854982854A83854BF012118CF56185615D60488565611565C374808561F063F0CD
:200D2F008095F05036855D82C006C005C004C003C002120A0FD002D003D004D005D006850D
:200D4F004961854A62854B630561E4B56102056285614985624A85634B80A5EE7003020E84
:200D6F0097C3E56695604003020E97E560C39566F5668566651566E5657003020E9475825F
:200D8F0020C006C005C004C003C002120A0FD002D003D004D005D00680D8E55624FDF565F3
:200DAF00856556A9658761098762098763191985614985624A85634B854B5E7480255E504F
:200DCF0005756543801974A0255E5005756550800E74C0255E50057565498003756558853C
:200DEF006582C006C005C004C003C002120A0F75823A120A0F758230120A0F758278120AC5
:200E0F000FD002D003D004D005D0067449B5650280217450B56502801A854A82C006C005C0
:200E2F00C004C003C002120A52D002D003D004D005D006854982C006C005C004C003C002A4
:200E4F00120A52D002D003D004D005D00680397A01755A0A8032755A08802D755A0A80282D
:200E6F00755A1080237C01801F856482C006C005C004C003C002120A0FD002D003D004D012
:200E8F0005D0068003856660EC6068E55624FCFC8C568C01876709876809876909876A192E
:200EAF00191985674985684A85694B856A4C754910754A1B754B80854967854A68854B6984
:200ECF0074012567F561E43568F56285696385614985624A85634B8567828568838569F034
:200EEF0012118CFC8C677003020AC7856782120A0F80C4E55A7003020AC7EB603FE55614C4
:200F0F00F9895687048C67756800756900756A0085674985684A85694B856A4CEA600302A3
:200F2F000FB4854967756800756900756A0085674985684A85694B856A4C8069E559602584
:200F4F00E55624FCFC8C568C01876709876809876909876A19191985674985684A85694BF3
:200F6F00856A4C8040E55624FEFC8C568C018703098704198B67ECF5683395E0F569F56AC8
:200F8F0085674985684A85694B856A4CEA7016854967854A68F569F56A85674985684A85D8
:200FAF00694B856A4CEA602AE54C30E723C3E49549F567E4954AF568E4954BF569E4954C6C
:200FCF00F56A85674985684A85694B856A4C80027A007C01797C7B00754D00855A82C006F1
:200FEF00C005C004C003C002C001120A69D001D002D003D004D005D006EC7010C003E54D38
:20100F00C4F567E74567F719D0038002A74D0BECB40100E433FCE549454A454B454C70B8F0
:20102F00895F8B5CE5607003756001ED702CEE7029856067AB5C0BC3EB9567501A758220AB
:20104F00C006C005C004C002120A0FD002D004D005D006156780DD856760EA601675822D4B
:20106F00C006C005C004120A0FD004D005D00615608036E55C6032E557601675822BC006D0
:20108F00C005C004120A0FD004D005D00615608018E5586014758220C006C005C004120ACE
:2010AF000FD004D005D0061560EE7034AB608B021BC3E55C9A503CED600875673075680071
:2010CF008006756720756800856782C006C005C004C003120A0FD003D004D005D00680CE57
:2010EF00C3E55C95605008E560C3955CFD80067D0080028B05A95FAB5C8B021BEA6036EC62
:20110F00B40100E433FC700A09E7C4540FFA8A4D80078702740F5AF54D854D82C006C00588
:20112F00C004C003C001120A32D001D003D004D005D00680C4EE7003020AC78D068E051E2B
:20114F00ED7003020AC7758220C006120A0FD00680EB8F82120A0F020AC7854E82854F8349
:01116F00225D
:0B1B10003C4E4F20464C4F41543E001D
:01117000324C
:01117100324B
:01117200324A
:18117300AA82AB8312118C6003A380F8C3E5829AF582E5839BF5832205
:01118B003231
:0D00690075817C1218B7E582600302006605
:1C118C0020F71430F6148883A88220F507E6A88375830022E280F7E49322E02272
:2011A800AF82751100751200D2E890E668E043E008F090E65CE043E001F090E65D7401F058
:2011C800D2AF90E680E020E10890E680E043E002F0EF600E90E680E043E008F090000A12C2
:2011E80019AD90E680E053E0F7F022AF82BF00028037BF01028036BF02028039BF0402802D
:2012080038BF06028037BF08028036BF80028019BF8102801CBF8202801BBF8402801ABF5D
:2012280086028019BF881E801890E6A02290E6A12290E6A22290E6A32290E6A42290E6A54B
:201248002290E6A62290000022C020C0E0C0F0C082C083C007C006C005C004C003C002C064
:2012680001C000C0D075D000C08675860090E6B8E0FFE4BF800104FE601990E6B9E0FDBD1A
:20128800061190E6BAE0FCA3E0F5828C1C1218BC0214CEEF702A90E6B9E0FDBD092290E6C4
:2012A800BAE0F5821219D1E582600990E6A07480F00214CE90E6A07401F07481F00214CE27
:2012C800EE600E90E6B9E0FDBD08061219080214CE8F05BD013190E6B9E0FDBD0B2990E6C6
:2012E800BCE0FD90E6BAE0F51B8D8212189EE582600990E6A07480F00214CE90E6A074011D
:20130800F07481F00214CEE4BF810104FD601490E6B9E0FCBC0A0C90E6BCE0F5821218EEF4
:201328000214CEEF703690E6B9E0FCBC032E90E6BAE0FBA3E0FCBB010FBC000C7511019000
:20134800E6A07480F00214CEBB0205BC000280030214CE90E6A07480F00214CEEE60329062
:20136800E6B9E0702CAE10E51125E0FC420690E740EEF090E741E4F090E6B504F090E68A0D
:20138800E4F090E68B7402F090E6A07480F00214CEED602890E6B9E0702290E740E4F090FB
:2013A800E741F090E6B504F090E68AE4F090E68B7402F090E6A07480F00214CEBF02028092
:2013C8000302147990E6B9E0FEBE03028008BE0102800302147990E6BAE0FDA3E0FE4D600D
:2013E800030214CE90E6BCE0F5821211F3AD82AE83ED4E70030214CE90E6B9E0FCBC03188B
:201408008D828E83E0FC4304018D828E83ECF090E6A07480F00214CE90E6BCE0F582C00657
:20142800C0051218E4E582D005D00670030214CE8D828E83E0FC5304FE8D828E83ECF0908B
:20144800E6BCE0FDA3E0740F5DFB7C00530580E4C423CDC423541F6DCD541FCD6DCDFEEDC2
:201468004203EE420490E683EBF0E043E020F08055BF824C90E6B9E0704690E6BCE0F58254
:201488001211F3AE82AF83EE4F603B8E828F83E0FE5306017F00EE4FB40100B3E433FF90D0
:2014A800E740F090E741E4F090E6B504F090E68AE4F090E68B7402F090E6A07480F08006A7
:2014C80090E6B81201BE5391EF90E65D7401F0D086D0D0D000D001D002D003D004D005D045
:2014E80006D007D083D082D0F0D0E0D02032AE82AF837401B51728E51870248E828F83E46E
:2015080093FCA3E493FD8C6B8D6C8C828D83E493FC8C6D756E0090E00012086D02174474F8
:2015280006B5173BE51870378E828F83A3A3E493FCA3E493FD4C700A90E6A07401F07481CA
:20154800F0228C028D038A6B8B6C8C828D83E493FC8C6D756E0090E00012086D0217447432
:2015680002B51702800302166D8E828F83A3A3A3A3E493FDC3E5189D400302166D8E828FA5
:2015880083A3A3A3A3A3E493FCA3E493FDE51875F002A42CF582ED35F0F583E493FCA3E4D8
:2015A80093FD74092CFAE43DFB8C008D01886B896C8C828D83E493F9896D756E0090E000FB
:2015C800C005C004C003C00212086DD002D003D004D0058C828D83E4932400FCE434E0FD76
:2015E8008C198D1A8A828B83E493F8A3E493F9886B896C88828983E493F8886D756E008531
:201608001982851A83C005C004C003C00212086DD002D003D004D0058A828B83E493F8A3F6
:20162800E493F988828983E4932CFCE43DFD74022AFAE43BFB8A828B83E493F8A3E493F90F
:2016480048709D90E002E0FAA3E0FB4A6003021744ECC39400FCED94E0FD90E002ECF0ED81
:20166800A3F00217447403B5170474018001E4FD601EE518701A756B1B756C1B901B1BE4AE
:2016880093FC8C6D756E0090E00012086D021744ED700302173AAC187D00EC24FFFAED3465
:2016A800FFFB74072EF582E43FF583E493F87900C3EA98EB648089F063F08095F050737469
:2016C800082EF582E43FF583E493FEA3E493FF1CBCFF011DEC2CFCED33FDEC2EF582ED3F49
:2016E800F583E493FEA3E493FF90E0007402F090E00104F074012401FCE434E0FD8E828F77
:2017080083E493FB60360EBE00010F8C828D83EBF074012CFAE43DFB8A828B83E4F0042A8E
:20172800FCE43BFD90E000E0FB0B0B90E000EBF080CB90E6A07401F07481F0227E007FE033
:2017480090E6B57401F090E6B3EFF090E6B4EEF090E6A07480F022AE82AF83A3A3A3A3A334
:20176800E493FCA3E493FD74042EF575E43FF576756D00857582857683E493FAC3E56D9A3D
:20178800400122E56D75F002A42CF582ED35F0F583E493F56EA3E493F56F7409256EF57087
:2017A800E4356FF5717900856E82856F83A3A3A3A3A3E493FAB512028003021890A870AA76
:2017C80071C004C00588828A83E493FBA3E493FD8B828D83A3E493F5727404B572028006A2
:2017E800D005D0048039D005D00488828A83E493F573A3E493F574857382857483A3A3E43D
:2018080093B56B11857382857483A3A3A3E493FBB56C0280047B0080027B018B01805174BA
:2018280005B5724CE96049C004C00588828A83E493FBA3E493FD8B828D83A3A3E493FD7422
:201848000F5DFB7F00530580E423CDC423541F6DCD541FCD6DCD30E40244E0FCED4203EC8C
:20186800420790E683EBF0E043E020F0D005D004740228F8E43AFA88828A83E493FEA3E4C6
:0D18880093FF4E60030217C9056D02177B28
:041B1B0004030904B2
:011895003220
:01189600321F
:01189700321E
:01189800321D
:01189900321C
:01189A00321B
:01189B00321A
:01189C003219
:01189D003218
:19189E00AF82E51B700F8F6B851B6C901A5712175F7582012275820022BF
:0418B7007582002214
:0118BB0032FA
:0C18BC00858217851C18901A570214F63C
:0118C80032ED
:1B18C90020F71130F6138883A88220F509F6A8837583002280FEF280F5F0221E
:0A18E40090E6A07480F075820122E6
:1A18EE0090E740E4F090E6B504F090E68AE4F090E68B04F090E6A003F02242
:1C19080090E740E512F090E6B57401F090E68AE4F090E68B04F090E6A003F022A1
:20192400E583700BE58224FA400122B4001122E5826003D5E0FD0075E0FED583F674F9D592
:20194400E0FD22C007C006C001C000AE82AF83EE2EF8EF33F9EE28FEEF39FF90E600E0F85C
:20196400794C20E416C3EF13CE13CEFF795AE820E309C3EF13CE13CEFF7963E58124FAF87F
:20198400E926C313C313F9C3EE99F582EF9400F583D000D001D006D007500122021924745F
:2019A40011C0E0121947158122C007C006AE82AF837411C0E0EE4F600D1EBEFF011F9003FC
:0D19C400E812194780EF1581D006D00722E8
:1E19D100E582FF6003BF01128F12756BFF756CFF901A5712175F758201227582002241
:00000001FF
